{
  "contractName": "BI",
  "abi": [
    {
      "inputs": [],
      "stateMutability": "payable",
      "type": "constructor",
      "payable": true
    },
    {
      "inputs": [
        {
          "internalType": "address",
          "name": "",
          "type": "address"
        }
      ],
      "name": "Buyers",
      "outputs": [
        {
          "internalType": "uint256",
          "name": "regStatus",
          "type": "uint256"
        },
        {
          "internalType": "uint256",
          "name": "buyerBal",
          "type": "uint256"
        }
      ],
      "stateMutability": "view",
      "type": "function",
      "constant": true
    },
    {
      "inputs": [
        {
          "internalType": "address",
          "name": "",
          "type": "address"
        }
      ],
      "name": "Sellers",
      "outputs": [
        {
          "internalType": "uint256",
          "name": "regStatus",
          "type": "uint256"
        },
        {
          "internalType": "uint256",
          "name": "sellerBal",
          "type": "uint256"
        }
      ],
      "stateMutability": "view",
      "type": "function",
      "constant": true
    },
    {
      "inputs": [],
      "name": "available",
      "outputs": [
        {
          "internalType": "uint256",
          "name": "",
          "type": "uint256"
        }
      ],
      "stateMutability": "view",
      "type": "function",
      "constant": true
    },
    {
      "inputs": [],
      "name": "productinfo",
      "outputs": [
        {
          "internalType": "uint256",
          "name": "prodID",
          "type": "uint256"
        },
        {
          "internalType": "string",
          "name": "description",
          "type": "string"
        },
        {
          "internalType": "uint256",
          "name": "price",
          "type": "uint256"
        }
      ],
      "stateMutability": "view",
      "type": "function",
      "constant": true
    },
    {
      "inputs": [
        {
          "internalType": "uint256",
          "name": "",
          "type": "uint256"
        }
      ],
      "name": "products",
      "outputs": [
        {
          "internalType": "uint256",
          "name": "prodID",
          "type": "uint256"
        },
        {
          "internalType": "string",
          "name": "description",
          "type": "string"
        },
        {
          "internalType": "uint256",
          "name": "price",
          "type": "uint256"
        }
      ],
      "stateMutability": "view",
      "type": "function",
      "constant": true
    },
    {
      "inputs": [
        {
          "internalType": "uint256",
          "name": "",
          "type": "uint256"
        }
      ],
      "name": "transferredProducts",
      "outputs": [
        {
          "internalType": "address",
          "name": "boughtby",
          "type": "address"
        },
        {
          "internalType": "string",
          "name": "review",
          "type": "string"
        }
      ],
      "stateMutability": "view",
      "type": "function",
      "constant": true
    },
    {
      "inputs": [],
      "name": "registerBuyer",
      "outputs": [],
      "stateMutability": "nonpayable",
      "type": "function"
    },
    {
      "inputs": [],
      "name": "registerSeller",
      "outputs": [],
      "stateMutability": "nonpayable",
      "type": "function"
    },
    {
      "inputs": [
        {
          "internalType": "address payable",
          "name": "addr",
          "type": "address"
        }
      ],
      "name": "unregister",
      "outputs": [],
      "stateMutability": "nonpayable",
      "type": "function"
    },
    {
      "inputs": [
        {
          "internalType": "uint256",
          "name": "id",
          "type": "uint256"
        },
        {
          "internalType": "address payable",
          "name": "owner",
          "type": "address"
        },
        {
          "internalType": "uint256",
          "name": "cost",
          "type": "uint256"
        },
        {
          "internalType": "string",
          "name": "desc",
          "type": "string"
        }
      ],
      "name": "fillProductInfo",
      "outputs": [],
      "stateMutability": "nonpayable",
      "type": "function"
    },
    {
      "inputs": [],
      "name": "seeProductsInfo",
      "outputs": [
        {
          "components": [
            {
              "internalType": "uint256",
              "name": "prodID",
              "type": "uint256"
            },
            {
              "internalType": "address[]",
              "name": "owners",
              "type": "address[]"
            },
            {
              "internalType": "string",
              "name": "description",
              "type": "string"
            },
            {
              "internalType": "uint256",
              "name": "price",
              "type": "uint256"
            }
          ],
          "internalType": "struct BI.Product[]",
          "name": "",
          "type": "tuple[]"
        }
      ],
      "stateMutability": "view",
      "type": "function",
      "constant": true
    },
    {
      "inputs": [],
      "name": "checkBalance",
      "outputs": [
        {
          "internalType": "uint256",
          "name": "val",
          "type": "uint256"
        }
      ],
      "stateMutability": "view",
      "type": "function",
      "constant": true
    },
    {
      "inputs": [],
      "name": "checkTransferredProducts",
      "outputs": [
        {
          "components": [
            {
              "internalType": "address",
              "name": "boughtby",
              "type": "address"
            },
            {
              "internalType": "string",
              "name": "review",
              "type": "string"
            }
          ],
          "internalType": "struct BI.boughtProduct[]",
          "name": "",
          "type": "tuple[]"
        }
      ],
      "stateMutability": "view",
      "type": "function",
      "constant": true
    },
    {
      "inputs": [],
      "name": "checknNoOfItems",
      "outputs": [
        {
          "internalType": "uint256",
          "name": "",
          "type": "uint256"
        }
      ],
      "stateMutability": "view",
      "type": "function",
      "constant": true
    },
    {
      "inputs": [
        {
          "internalType": "uint256",
          "name": "id",
          "type": "uint256"
        },
        {
          "internalType": "address payable",
          "name": "latest",
          "type": "address"
        }
      ],
      "name": "buyProducts",
      "outputs": [],
      "stateMutability": "payable",
      "type": "function",
      "payable": true
    }
  ],
  "bytecode": "0x608060405233600760006101000a81548173ffffffffffffffffffffffffffffffffffffffff021916908373ffffffffffffffffffffffffffffffffffffffff160217905550611c07806100546000396000f3fe6080604052600436106100e85760003560e01c80637dca429f1161008a578063ab4d385811610059578063ab4d3858146102dc578063c71daccb14610305578063d7e81b2b14610330578063f533476f1461035b576100e8565b80637dca429f1461021e5780639240c73e1461025c5780639f8e2f8814610287578063a365a85e146102c5576100e8565b806335ed1665116100c657806335ed16651461017057806348a0d7541461019d57806352c9224c146101c85780637acc0b20146101df576100e8565b8063155fe8a4146100ed57806323d2acca1461012b5780632ec2c24614610147575b600080fd5b3480156100f957600080fd5b50610114600480360381019061010f91906113f5565b610386565b604051610122929190611991565b60405180910390f35b61014560048036038101906101409190611470565b6103aa565b005b34801561015357600080fd5b5061016e6004803603810190610169919061141e565b610715565b005b34801561017c57600080fd5b506101856108a0565b60405161019493929190611953565b60405180910390f35b3480156101a957600080fd5b506101b2610950565b6040516101bf9190611938565b60405180910390f35b3480156101d457600080fd5b506101dd610956565b005b3480156101eb57600080fd5b5061020660048036038101906102019190611447565b6109fe565b60405161021593929190611953565b60405180910390f35b34801561022a57600080fd5b50610245600480360381019061024091906113f5565b610acd565b604051610253929190611991565b60405180910390f35b34801561026857600080fd5b50610271610af1565b60405161027e9190611938565b60405180910390f35b34801561029357600080fd5b506102ae60048036038101906102a99190611447565b610afb565b6040516102bc929190611884565b60405180910390f35b3480156102d157600080fd5b506102da610be4565b005b3480156102e857600080fd5b5061030360048036038101906102fe91906114ac565b610c8c565b005b34801561031157600080fd5b5061031a610e3d565b6040516103279190611938565b60405180910390f35b34801561033c57600080fd5b50610345610e87565b60405161035291906118d6565b60405180910390f35b34801561036757600080fd5b50610370610fde565b60405161037d91906118b4565b60405180910390f35b60096020528060005260406000206000915090508060000154908060010154905082565b6001600860003373ffffffffffffffffffffffffffffffffffffffff1673ffffffffffffffffffffffffffffffffffffffff168152602001908152602001600020600001541461042f576040517f08c379a000000000000000000000000000000000000000000000000000000000815260040161042690611918565b60405180910390fd5b600080600090505b600160008054905003811161050857836000828154811061045457fe5b90600052602060002090600402016000015414156104fd576000818154811061047957fe5b90600052602060002090600402016003015491506000818154811061049a57fe5b90600052602060002090600402016001018054806104b457fe5b6001900381819060005260206000200160006101000a81549073ffffffffffffffffffffffffffffffffffffffff02191690559055600660008154809291906001900391905055505b806001019050610437565b506000670de0b6b3a76400008202905080600860003373ffffffffffffffffffffffffffffffffffffffff1673ffffffffffffffffffffffffffffffffffffffff16815260200190815260200160002060010154101561056757600080fd5b80600860003373ffffffffffffffffffffffffffffffffffffffff1673ffffffffffffffffffffffffffffffffffffffff168152602001908152602001600020600101600082825403925050819055506105bf611181565b33816000019073ffffffffffffffffffffffffffffffffffffffff16908173ffffffffffffffffffffffffffffffffffffffff16815250506040518060400160405280600d81526020017f47726561742050726f64756374000000000000000000000000000000000000008152508160200181905250600181908060018154018082558091505060019003906000526020600020906002020160009091909190915060008201518160000160006101000a81548173ffffffffffffffffffffffffffffffffffffffff021916908373ffffffffffffffffffffffffffffffffffffffff16021790555060208201518160010190805190602001906106c49291906111b1565b5050508373ffffffffffffffffffffffffffffffffffffffff166108fc839081150290604051600060405180830381858888f1935050505015801561070d573d6000803e3d6000fd5b505050505050565b600760009054906101000a900473ffffffffffffffffffffffffffffffffffffffff1673ffffffffffffffffffffffffffffffffffffffff163373ffffffffffffffffffffffffffffffffffffffff161461076f57600080fd5b6001600860008373ffffffffffffffffffffffffffffffffffffffff1673ffffffffffffffffffffffffffffffffffffffff1681526020019081526020016000206000015414610806576000600860008373ffffffffffffffffffffffffffffffffffffffff1673ffffffffffffffffffffffffffffffffffffffff16815260200190815260200160002060000181905550600080fd5b6002600960008373ffffffffffffffffffffffffffffffffffffffff1673ffffffffffffffffffffffffffffffffffffffff168152602001908152602001600020600001541461089d576000600960008373ffffffffffffffffffffffffffffffffffffffff1673ffffffffffffffffffffffffffffffffffffffff16815260200190815260200160002060000181905550600080fd5b50565b6002806000015490806002018054600181600116156101000203166002900480601f0160208091040260200160405190810160405280929190818152602001828054600181600116156101000203166002900480156109405780601f1061091557610100808354040283529160200191610940565b820191906000526020600020905b81548152906001019060200180831161092357829003601f168201915b5050505050908060030154905083565b60065481565b6002600960003373ffffffffffffffffffffffffffffffffffffffff1673ffffffffffffffffffffffffffffffffffffffff168152602001908152602001600020600001819055503373ffffffffffffffffffffffffffffffffffffffff1631600960003373ffffffffffffffffffffffffffffffffffffffff1673ffffffffffffffffffffffffffffffffffffffff16815260200190815260200160002060010181905550565b60008181548110610a0b57fe5b9060005260206000209060040201600091509050806000015490806002018054600181600116156101000203166002900480601f016020809104026020016040519081016040528092919081815260200182805460018160011615610100020316600290048015610abd5780601f10610a9257610100808354040283529160200191610abd565b820191906000526020600020905b815481529060010190602001808311610aa057829003601f168201915b5050505050908060030154905083565b60086020528060005260406000206000915090508060000154908060010154905082565b6000600654905090565b60018181548110610b0857fe5b90600052602060002090600202016000915090508060000160009054906101000a900473ffffffffffffffffffffffffffffffffffffffff1690806001018054600181600116156101000203166002900480601f016020809104026020016040519081016040528092919081815260200182805460018160011615610100020316600290048015610bda5780601f10610baf57610100808354040283529160200191610bda565b820191906000526020600020905b815481529060010190602001808311610bbd57829003601f168201915b5050505050905082565b6001600860003373ffffffffffffffffffffffffffffffffffffffff1673ffffffffffffffffffffffffffffffffffffffff168152602001908152602001600020600001819055503373ffffffffffffffffffffffffffffffffffffffff1631600860003373ffffffffffffffffffffffffffffffffffffffff1673ffffffffffffffffffffffffffffffffffffffff16815260200190815260200160002060010181905550565b6002600960003373ffffffffffffffffffffffffffffffffffffffff1673ffffffffffffffffffffffffffffffffffffffff1681526020019081526020016000206000015414610d11576040517f08c379a0000000000000000000000000000000000000000000000000000000008152600401610d08906118f8565b60405180910390fd5b8360026000018190555080600280019080519060200190610d339291906111b1565b50816002600301819055506002600101839080600181540180825580915050600190039060005260206000200160009091909190916101000a81548173ffffffffffffffffffffffffffffffffffffffff021916908373ffffffffffffffffffffffffffffffffffffffff160217905550600060029080600181540180825580915050600190039060005260206000209060040201600090919091909150600082015481600001556001820181600101908054610df1929190611231565b5060028201816002019080546001816001161561010002031660029004610e19929190611283565b50600382015481600301555050600160066000828254019250508190555050505050565b6000600860003373ffffffffffffffffffffffffffffffffffffffff1673ffffffffffffffffffffffffffffffffffffffff16815260200190815260200160002060010154905090565b60606001805480602002602001604051908101604052809291908181526020016000905b82821015610fd557838290600052602060002090600202016040518060400160405290816000820160009054906101000a900473ffffffffffffffffffffffffffffffffffffffff1673ffffffffffffffffffffffffffffffffffffffff1673ffffffffffffffffffffffffffffffffffffffff168152602001600182018054600181600116156101000203166002900480601f016020809104026020016040519081016040528092919081815260200182805460018160011615610100020316600290048015610fbd5780601f10610f9257610100808354040283529160200191610fbd565b820191906000526020600020905b815481529060010190602001808311610fa057829003601f168201915b50505050508152505081526020019060010190610eab565b50505050905090565b60606000805480602002602001604051908101604052809291908181526020016000905b82821015611178578382906000526020600020906004020160405180608001604052908160008201548152602001600182018054806020026020016040519081016040528092919081815260200182805480156110b457602002820191906000526020600020905b8160009054906101000a900473ffffffffffffffffffffffffffffffffffffffff1673ffffffffffffffffffffffffffffffffffffffff168152602001906001019080831161106a575b50505050508152602001600282018054600181600116156101000203166002900480601f0160208091040260200160405190810160405280929190818152602001828054600181600116156101000203166002900480156111565780601f1061112b57610100808354040283529160200191611156565b820191906000526020600020905b81548152906001019060200180831161113957829003601f168201915b5050505050815260200160038201548152505081526020019060010190611002565b50505050905090565b6040518060400160405280600073ffffffffffffffffffffffffffffffffffffffff168152602001606081525090565b828054600181600116156101000203166002900490600052602060002090601f016020900481019282601f106111f257805160ff1916838001178555611220565b82800160010185558215611220579182015b8281111561121f578251825591602001919060010190611204565b5b50905061122d919061130a565b5090565b8280548282559060005260206000209081019282156112725760005260206000209182015b82811115611271578254825591600101919060010190611256565b5b50905061127f9190611327565b5090565b828054600181600116156101000203166002900490600052602060002090601f016020900481019282601f106112bc57805485556112f9565b828001600101855582156112f957600052602060002091601f016020900482015b828111156112f85782548255916001019190600101906112dd565b5b509050611306919061130a565b5090565b5b8082111561132357600081600090555060010161130b565b5090565b5b8082111561135e57600081816101000a81549073ffffffffffffffffffffffffffffffffffffffff021916905550600101611328565b5090565b60008135905061137181611b8c565b92915050565b60008135905061138681611ba3565b92915050565b600082601f83011261139d57600080fd5b81356113b06113ab826119e7565b6119ba565b915080825260208301602083018583830111156113cc57600080fd5b6113d7838284611b39565b50505092915050565b6000813590506113ef81611bba565b92915050565b60006020828403121561140757600080fd5b600061141584828501611362565b91505092915050565b60006020828403121561143057600080fd5b600061143e84828501611377565b91505092915050565b60006020828403121561145957600080fd5b6000611467848285016113e0565b91505092915050565b6000806040838503121561148357600080fd5b6000611491858286016113e0565b92505060206114a285828601611377565b9150509250929050565b600080600080608085870312156114c257600080fd5b60006114d0878288016113e0565b94505060206114e187828801611377565b93505060406114f2878288016113e0565b925050606085013567ffffffffffffffff81111561150f57600080fd5b61151b8782880161138c565b91505092959194509250565b60006115338383611567565b60208301905092915050565b600061154b83836117bf565b905092915050565b600061155f8383611829565b905092915050565b61157081611aeb565b82525050565b61157f81611aeb565b82525050565b600061159082611a43565b61159a8185611a96565b93506115a583611a13565b8060005b838110156115d65781516115bd8882611527565b97506115c883611a6f565b9250506001810190506115a9565b5085935050505092915050565b60006115ee82611a4e565b6115f88185611aa7565b93508360208202850161160a85611a23565b8060005b858110156116465784840389528151611627858261153f565b945061163283611a7c565b925060208a0199505060018101905061160e565b50829750879550505050505092915050565b600061166382611a59565b61166d8185611ab8565b93508360208202850161167f85611a33565b8060005b858110156116bb578484038952815161169c8582611553565b94506116a783611a89565b925060208a01995050600181019050611683565b50829750879550505050505092915050565b60006116d882611a64565b6116e28185611ac9565b93506116f2818560208601611b48565b6116fb81611b7b565b840191505092915050565b600061171182611a64565b61171b8185611ada565b935061172b818560208601611b48565b61173481611b7b565b840191505092915050565b600061174c601183611ada565b91507f526567697374657265642053656c6c65720000000000000000000000000000006000830152602082019050919050565b600061178c601083611ada565b91507f52656769737465726564204275796572000000000000000000000000000000006000830152602082019050919050565b60006080830160008301516117d76000860182611866565b50602083015184820360208601526117ef8282611585565b9150506040830151848203604086015261180982826116cd565b915050606083015161181e6060860182611866565b508091505092915050565b60006040830160008301516118416000860182611567565b506020830151848203602086015261185982826116cd565b9150508091505092915050565b61186f81611b2f565b82525050565b61187e81611b2f565b82525050565b60006040820190506118996000830185611576565b81810360208301526118ab8184611706565b90509392505050565b600060208201905081810360008301526118ce81846115e3565b905092915050565b600060208201905081810360008301526118f08184611658565b905092915050565b600060208201905081810360008301526119118161173f565b9050919050565b600060208201905081810360008301526119318161177f565b9050919050565b600060208201905061194d6000830184611875565b92915050565b60006060820190506119686000830186611875565b818103602083015261197a8185611706565b90506119896040830184611875565b949350505050565b60006040820190506119a66000830185611875565b6119b36020830184611875565b9392505050565b6000604051905081810181811067ffffffffffffffff821117156119dd57600080fd5b8060405250919050565b600067ffffffffffffffff8211156119fe57600080fd5b601f19601f8301169050602081019050919050565b6000819050602082019050919050565b6000819050602082019050919050565b6000819050602082019050919050565b600081519050919050565b600081519050919050565b600081519050919050565b600081519050919050565b6000602082019050919050565b6000602082019050919050565b6000602082019050919050565b600082825260208201905092915050565b600082825260208201905092915050565b600082825260208201905092915050565b600082825260208201905092915050565b600082825260208201905092915050565b6000611af682611b0f565b9050919050565b6000611b0882611b0f565b9050919050565b600073ffffffffffffffffffffffffffffffffffffffff82169050919050565b6000819050919050565b82818337600083830152505050565b60005b83811015611b66578082015181840152602081019050611b4b565b83811115611b75576000848401525b50505050565b6000601f19601f8301169050919050565b611b9581611aeb565b8114611ba057600080fd5b50565b611bac81611afd565b8114611bb757600080fd5b50565b611bc381611b2f565b8114611bce57600080fd5b5056fea2646970667358221220782fcd311c279b4670e149263b7a8b230f2dab8d61d1ae254d7306bdc7d749de64736f6c634300060c0033",
  "immutableReferences": {},
  "source": "//SPDX-License-Identifier: UNLICENSED\n\npragma solidity ^0.6.0;\npragma experimental ABIEncoderV2;\ncontract BI\n{\n    struct Product\n    {\n        uint prodID;\n        address[] owners;\n        string description;\n        uint price;\n        // uint noOfUnits;\n    }\n\n    struct boughtProduct {\n        // uint unitsBought;\n        address boughtby;\n        string review;\n    }\n    \n    struct Buyer {\n        uint regStatus;\n        uint buyerBal;\n    }\n    \n    struct Seller {\n        uint regStatus;\n        uint sellerBal;\n    }\n    Product[] public products ;\n    boughtProduct[] public transferredProducts; \n    Product public productinfo;\n    uint public available;\n    address chairperson;\n\n    mapping(address => Buyer) public Buyers;\n    mapping(address => Seller) public Sellers;\n    \n    constructor () public payable  { \n      \n        chairperson = msg.sender;\n    }\n\n    modifier onlyChairperson{ \n        require(msg.sender==chairperson);\n        _;\n    }\n    \n    modifier validBuyer() {\n        require(Buyers[msg.sender].regStatus == 1, \"Registered Buyer\");\n        _;\n    }\n\n    modifier validSeller() {\n        require(Sellers[msg.sender].regStatus == 2, \"Registered Seller\");\n        _;\n    }\n\n    function registerBuyer() public {\n        Buyers[msg.sender].regStatus = 1;\n        Buyers[msg.sender].buyerBal = address(msg.sender).balance;\n    }\n\n    function registerSeller() public {\n        Sellers[msg.sender].regStatus = 2;\n        Sellers[msg.sender].sellerBal = address(msg.sender).balance;\n    }\n\n    function unregister (address payable addr) onlyChairperson public {\n        \n        if (Buyers[addr].regStatus!= 1) { \n            Buyers[addr].regStatus = 0;\n            revert();\n        }\n        if (Sellers[addr].regStatus!= 2) {\n            Sellers[addr].regStatus = 0;\n            revert();\n        }\n        \n    }\n    // function \n    function fillProductInfo(uint id, address payable owner, uint cost, string memory desc) public validSeller {\n       productinfo.prodID = id;\n       productinfo.description = desc;\n       productinfo.price = cost;\n       productinfo.owners.push(owner);\n       products.push(productinfo);\n       available += 1;\n    //    return productinfo;\n    }\n\n    function seeProductsInfo () public view returns (Product[] memory) {\n        return products;\n    }\n    \n    function checkBalance () public view returns (uint val) {\n        // uint x = cp * cost;\n        return (Buyers[msg.sender].buyerBal);\n    }\n\n    function checkTransferredProducts () public view returns (boughtProduct[] memory) {\n        // uint x = cp * cost;\n        return transferredProducts;\n    }\n\n\n    function checknNoOfItems () public view returns (uint) {\n        // uint x = cp * cost;\n        return available;\n    }\n\n    function buyProducts(uint id, address payable latest) validBuyer payable external {\n        // require(prod.noOfUnits >= count);\n        uint cp;\n        for (uint x = 0; x <= products.length - 1; ++x) {\n            if (products[x].prodID == id) {\n                // require(products[x].noOfUnits >= count);\n                cp = products[x].price;\n                // address payable latest = products[x].owners[owners.length - 1];\n                products[x].owners.pop();\n                // if (products[x].owners.length == 0) {\n                //     available--;\n                // }\n                available--;\n            }\n        }\n        uint cpether = cp * 1000000000000000000; //change it e^18\n        require(Buyers[msg.sender].buyerBal >= (cpether));\n        Buyers[msg.sender].buyerBal -= (cpether);\n        \n        // for (uint x = 0; x <= products.length - 1; ++x) {\n        //     if (products[x].prodID == id) {\n        //         // require(products[x].noOfUnits >= count);\n        //         products[x].owners.pop();\n        //         if (products[x].owners.length == 0) {\n        //             available--;\n        //         }\n        //     }\n        // }\n        boughtProduct memory bp;\n        // bp.unitsBought = count;\n        bp.boughtby = msg.sender;\n        bp.review = \"Great Product\";\n        \n        transferredProducts.push(bp);\n        \n        (latest).transfer(cpether);\n\n    }\n\n}\n//batches of products - quantize; initially add balance to smart contract (extra function)",
  "sourcePath": "/Users/vivekreddy/Documents/Spring2022/Blockchain/Code/BI_Final/BI-contract/contracts/BI.sol",
  "compiler": {
    "name": "solc",
    "version": "0.6.12+commit.27d51765.Emscripten.clang"
  },
  "schemaVersion": "3.4.7",
  "updatedAt": "2022-04-17T23:56:01.162Z",
  "networkType": "ethereum",
  "devdoc": {
    "kind": "dev",
    "methods": {},
    "version": 1
  },
  "userdoc": {
    "kind": "user",
    "methods": {},
    "version": 1
  }
}