{
  "contractName": "BI",
  "abi": [
    {
      "inputs": [],
      "stateMutability": "nonpayable",
      "type": "constructor"
    },
    {
      "anonymous": false,
      "inputs": [
        {
          "indexed": true,
          "internalType": "address",
          "name": "owner",
          "type": "address"
        },
        {
          "indexed": true,
          "internalType": "address",
          "name": "spender",
          "type": "address"
        },
        {
          "indexed": false,
          "internalType": "uint256",
          "name": "value",
          "type": "uint256"
        }
      ],
      "name": "Approval",
      "type": "event"
    },
    {
      "anonymous": false,
      "inputs": [
        {
          "indexed": true,
          "internalType": "address",
          "name": "previousOwner",
          "type": "address"
        },
        {
          "indexed": true,
          "internalType": "address",
          "name": "newOwner",
          "type": "address"
        }
      ],
      "name": "OwnershipTransferred",
      "type": "event"
    },
    {
      "anonymous": false,
      "inputs": [
        {
          "indexed": true,
          "internalType": "address",
          "name": "from",
          "type": "address"
        },
        {
          "indexed": true,
          "internalType": "address",
          "name": "to",
          "type": "address"
        },
        {
          "indexed": false,
          "internalType": "uint256",
          "name": "value",
          "type": "uint256"
        }
      ],
      "name": "Transfer",
      "type": "event"
    },
    {
      "inputs": [
        {
          "internalType": "address",
          "name": "",
          "type": "address"
        }
      ],
      "name": "Buyers",
      "outputs": [
        {
          "internalType": "uint256",
          "name": "regStatus",
          "type": "uint256"
        },
        {
          "internalType": "uint256",
          "name": "buyerBal",
          "type": "uint256"
        }
      ],
      "stateMutability": "view",
      "type": "function",
      "constant": true
    },
    {
      "inputs": [
        {
          "internalType": "address",
          "name": "",
          "type": "address"
        }
      ],
      "name": "Sellers",
      "outputs": [
        {
          "internalType": "uint256",
          "name": "regStatus",
          "type": "uint256"
        },
        {
          "internalType": "uint256",
          "name": "sellerBal",
          "type": "uint256"
        }
      ],
      "stateMutability": "view",
      "type": "function",
      "constant": true
    },
    {
      "inputs": [
        {
          "internalType": "address",
          "name": "owner",
          "type": "address"
        },
        {
          "internalType": "address",
          "name": "spender",
          "type": "address"
        }
      ],
      "name": "allowance",
      "outputs": [
        {
          "internalType": "uint256",
          "name": "",
          "type": "uint256"
        }
      ],
      "stateMutability": "view",
      "type": "function",
      "constant": true
    },
    {
      "inputs": [
        {
          "internalType": "address",
          "name": "spender",
          "type": "address"
        },
        {
          "internalType": "uint256",
          "name": "amount",
          "type": "uint256"
        }
      ],
      "name": "approve",
      "outputs": [
        {
          "internalType": "bool",
          "name": "",
          "type": "bool"
        }
      ],
      "stateMutability": "nonpayable",
      "type": "function"
    },
    {
      "inputs": [],
      "name": "available",
      "outputs": [
        {
          "internalType": "uint256",
          "name": "",
          "type": "uint256"
        }
      ],
      "stateMutability": "view",
      "type": "function",
      "constant": true
    },
    {
      "inputs": [
        {
          "internalType": "address",
          "name": "account",
          "type": "address"
        }
      ],
      "name": "balanceOf",
      "outputs": [
        {
          "internalType": "uint256",
          "name": "",
          "type": "uint256"
        }
      ],
      "stateMutability": "view",
      "type": "function",
      "constant": true
    },
    {
      "inputs": [],
      "name": "decimals",
      "outputs": [
        {
          "internalType": "uint8",
          "name": "",
          "type": "uint8"
        }
      ],
      "stateMutability": "view",
      "type": "function",
      "constant": true
    },
    {
      "inputs": [
        {
          "internalType": "address",
          "name": "spender",
          "type": "address"
        },
        {
          "internalType": "uint256",
          "name": "subtractedValue",
          "type": "uint256"
        }
      ],
      "name": "decreaseAllowance",
      "outputs": [
        {
          "internalType": "bool",
          "name": "",
          "type": "bool"
        }
      ],
      "stateMutability": "nonpayable",
      "type": "function"
    },
    {
      "inputs": [
        {
          "internalType": "address",
          "name": "spender",
          "type": "address"
        },
        {
          "internalType": "uint256",
          "name": "addedValue",
          "type": "uint256"
        }
      ],
      "name": "increaseAllowance",
      "outputs": [
        {
          "internalType": "bool",
          "name": "",
          "type": "bool"
        }
      ],
      "stateMutability": "nonpayable",
      "type": "function"
    },
    {
      "inputs": [],
      "name": "name",
      "outputs": [
        {
          "internalType": "string",
          "name": "",
          "type": "string"
        }
      ],
      "stateMutability": "view",
      "type": "function",
      "constant": true
    },
    {
      "inputs": [],
      "name": "owner",
      "outputs": [
        {
          "internalType": "address",
          "name": "",
          "type": "address"
        }
      ],
      "stateMutability": "view",
      "type": "function",
      "constant": true
    },
    {
      "inputs": [],
      "name": "productinfo",
      "outputs": [
        {
          "internalType": "uint256",
          "name": "prodID",
          "type": "uint256"
        },
        {
          "internalType": "address",
          "name": "owner",
          "type": "address"
        },
        {
          "internalType": "string",
          "name": "description",
          "type": "string"
        },
        {
          "internalType": "uint256",
          "name": "price",
          "type": "uint256"
        },
        {
          "internalType": "uint256",
          "name": "sold",
          "type": "uint256"
        }
      ],
      "stateMutability": "view",
      "type": "function",
      "constant": true
    },
    {
      "inputs": [
        {
          "internalType": "uint256",
          "name": "",
          "type": "uint256"
        }
      ],
      "name": "products",
      "outputs": [
        {
          "internalType": "uint256",
          "name": "prodID",
          "type": "uint256"
        },
        {
          "internalType": "address",
          "name": "owner",
          "type": "address"
        },
        {
          "internalType": "string",
          "name": "description",
          "type": "string"
        },
        {
          "internalType": "uint256",
          "name": "price",
          "type": "uint256"
        },
        {
          "internalType": "uint256",
          "name": "sold",
          "type": "uint256"
        }
      ],
      "stateMutability": "view",
      "type": "function",
      "constant": true
    },
    {
      "inputs": [],
      "name": "renounceOwnership",
      "outputs": [],
      "stateMutability": "nonpayable",
      "type": "function"
    },
    {
      "inputs": [],
      "name": "symbol",
      "outputs": [
        {
          "internalType": "string",
          "name": "",
          "type": "string"
        }
      ],
      "stateMutability": "view",
      "type": "function",
      "constant": true
    },
    {
      "inputs": [],
      "name": "totalSupply",
      "outputs": [
        {
          "internalType": "uint256",
          "name": "",
          "type": "uint256"
        }
      ],
      "stateMutability": "view",
      "type": "function",
      "constant": true
    },
    {
      "inputs": [
        {
          "internalType": "address",
          "name": "to",
          "type": "address"
        },
        {
          "internalType": "uint256",
          "name": "amount",
          "type": "uint256"
        }
      ],
      "name": "transfer",
      "outputs": [
        {
          "internalType": "bool",
          "name": "",
          "type": "bool"
        }
      ],
      "stateMutability": "nonpayable",
      "type": "function"
    },
    {
      "inputs": [
        {
          "internalType": "address",
          "name": "from",
          "type": "address"
        },
        {
          "internalType": "address",
          "name": "to",
          "type": "address"
        },
        {
          "internalType": "uint256",
          "name": "amount",
          "type": "uint256"
        }
      ],
      "name": "transferFrom",
      "outputs": [
        {
          "internalType": "bool",
          "name": "",
          "type": "bool"
        }
      ],
      "stateMutability": "nonpayable",
      "type": "function"
    },
    {
      "inputs": [
        {
          "internalType": "address",
          "name": "newOwner",
          "type": "address"
        }
      ],
      "name": "transferOwnership",
      "outputs": [],
      "stateMutability": "nonpayable",
      "type": "function"
    },
    {
      "inputs": [
        {
          "internalType": "uint256",
          "name": "",
          "type": "uint256"
        }
      ],
      "name": "transferredProducts",
      "outputs": [
        {
          "internalType": "address",
          "name": "boughtBy",
          "type": "address"
        },
        {
          "internalType": "string",
          "name": "review",
          "type": "string"
        }
      ],
      "stateMutability": "view",
      "type": "function",
      "constant": true
    },
    {
      "inputs": [
        {
          "internalType": "address",
          "name": "to",
          "type": "address"
        },
        {
          "internalType": "uint256",
          "name": "amount",
          "type": "uint256"
        }
      ],
      "name": "mint",
      "outputs": [],
      "stateMutability": "nonpayable",
      "type": "function"
    },
    {
      "inputs": [
        {
          "internalType": "uint256",
          "name": "amt",
          "type": "uint256"
        }
      ],
      "name": "registerBuyer",
      "outputs": [],
      "stateMutability": "nonpayable",
      "type": "function"
    },
    {
      "inputs": [
        {
          "internalType": "uint256",
          "name": "amt",
          "type": "uint256"
        }
      ],
      "name": "registerSeller",
      "outputs": [],
      "stateMutability": "nonpayable",
      "type": "function"
    },
    {
      "inputs": [
        {
          "internalType": "address",
          "name": "addr",
          "type": "address"
        }
      ],
      "name": "unregister",
      "outputs": [],
      "stateMutability": "nonpayable",
      "type": "function"
    },
    {
      "inputs": [
        {
          "internalType": "uint256",
          "name": "id",
          "type": "uint256"
        },
        {
          "internalType": "address payable",
          "name": "owner",
          "type": "address"
        },
        {
          "internalType": "uint256",
          "name": "cost",
          "type": "uint256"
        },
        {
          "internalType": "string",
          "name": "desc",
          "type": "string"
        }
      ],
      "name": "fillProductInfo",
      "outputs": [],
      "stateMutability": "nonpayable",
      "type": "function"
    },
    {
      "inputs": [],
      "name": "seeProductsInfo",
      "outputs": [
        {
          "components": [
            {
              "internalType": "uint256",
              "name": "prodID",
              "type": "uint256"
            },
            {
              "internalType": "address",
              "name": "owner",
              "type": "address"
            },
            {
              "internalType": "string",
              "name": "description",
              "type": "string"
            },
            {
              "internalType": "uint256",
              "name": "price",
              "type": "uint256"
            },
            {
              "internalType": "uint256",
              "name": "sold",
              "type": "uint256"
            }
          ],
          "internalType": "struct BI.Product[]",
          "name": "",
          "type": "tuple[]"
        }
      ],
      "stateMutability": "view",
      "type": "function",
      "constant": true
    },
    {
      "inputs": [
        {
          "internalType": "address",
          "name": "acc",
          "type": "address"
        }
      ],
      "name": "checkBalance",
      "outputs": [
        {
          "internalType": "uint256",
          "name": "val",
          "type": "uint256"
        }
      ],
      "stateMutability": "view",
      "type": "function",
      "constant": true
    },
    {
      "inputs": [],
      "name": "checkTransferredProducts",
      "outputs": [
        {
          "components": [
            {
              "internalType": "address",
              "name": "boughtBy",
              "type": "address"
            },
            {
              "internalType": "string",
              "name": "review",
              "type": "string"
            }
          ],
          "internalType": "struct BI.boughtProduct[]",
          "name": "",
          "type": "tuple[]"
        }
      ],
      "stateMutability": "view",
      "type": "function",
      "constant": true
    },
    {
      "inputs": [],
      "name": "checknNoOfItems",
      "outputs": [
        {
          "internalType": "uint256",
          "name": "",
          "type": "uint256"
        }
      ],
      "stateMutability": "view",
      "type": "function",
      "constant": true
    },
    {
      "inputs": [
        {
          "internalType": "uint256",
          "name": "id",
          "type": "uint256"
        },
        {
          "internalType": "address",
          "name": "latest",
          "type": "address"
        },
        {
          "internalType": "uint256",
          "name": "amt",
          "type": "uint256"
        }
      ],
      "name": "buyProducts",
      "outputs": [],
      "stateMutability": "payable",
      "type": "function",
      "payable": true
    }
  ],
  "bytecode": "0x60806040523480156200001157600080fd5b506040518060400160405280601781526020017f42756666616c6f496e737472756d656e7473546f6b656e0000000000000000008152506040518060400160405280600481526020017f4249545300000000000000000000000000000000000000000000000000000000815250816003908051906020019062000096929190620003b2565b508060049080519060200190620000af929190620003b2565b505050620000d2620000c66200015860201b60201c565b6200016060201b60201c565b6200011133620000e76200022660201b60201c565b600a620000f59190620005a2565b620f4240620001059190620006df565b6200022f60201b60201c565b33600e60006101000a81548173ffffffffffffffffffffffffffffffffffffffff021916908373ffffffffffffffffffffffffffffffffffffffff16021790555062000821565b600033905090565b6000600560009054906101000a900473ffffffffffffffffffffffffffffffffffffffff16905081600560006101000a81548173ffffffffffffffffffffffffffffffffffffffff021916908373ffffffffffffffffffffffffffffffffffffffff1602179055508173ffffffffffffffffffffffffffffffffffffffff168173ffffffffffffffffffffffffffffffffffffffff167f8be0079c531659141344cd1fd0a4f28419497f9722a3daafe3b4186f6b6457e060405160405180910390a35050565b60006012905090565b600073ffffffffffffffffffffffffffffffffffffffff168273ffffffffffffffffffffffffffffffffffffffff161415620002a2576040517f08c379a000000000000000000000000000000000000000000000000000000000815260040162000299906200049a565b60405180910390fd5b620002b660008383620003a860201b60201c565b8060026000828254620002ca9190620004ea565b92505081905550806000808473ffffffffffffffffffffffffffffffffffffffff1673ffffffffffffffffffffffffffffffffffffffff1681526020019081526020016000206000828254620003219190620004ea565b925050819055508173ffffffffffffffffffffffffffffffffffffffff16600073ffffffffffffffffffffffffffffffffffffffff167fddf252ad1be2c89b69c2b068fc378daa952ba7f163c4a11628f55a4df523b3ef83604051620003889190620004bc565b60405180910390a3620003a460008383620003ad60201b60201c565b5050565b505050565b505050565b828054620003c09062000757565b90600052602060002090601f016020900481019282620003e4576000855562000430565b82601f10620003ff57805160ff191683800117855562000430565b8280016001018555821562000430579182015b828111156200042f57825182559160200191906001019062000412565b5b5090506200043f919062000443565b5090565b5b808211156200045e57600081600090555060010162000444565b5090565b600062000471601f83620004d9565b91506200047e82620007f8565b602082019050919050565b620004948162000740565b82525050565b60006020820190508181036000830152620004b58162000462565b9050919050565b6000602082019050620004d3600083018462000489565b92915050565b600082825260208201905092915050565b6000620004f78262000740565b9150620005048362000740565b9250827fffffffffffffffffffffffffffffffffffffffffffffffffffffffffffffffff038211156200053c576200053b6200078d565b5b828201905092915050565b6000808291508390505b600185111562000599578086048111156200057157620005706200078d565b5b6001851615620005815780820291505b80810290506200059185620007eb565b945062000551565b94509492505050565b6000620005af8262000740565b9150620005bc836200074a565b9250620005eb7fffffffffffffffffffffffffffffffffffffffffffffffffffffffffffffffff8484620005f3565b905092915050565b600082620006055760019050620006d8565b81620006155760009050620006d8565b81600181146200062e576002811462000639576200066f565b6001915050620006d8565b60ff8411156200064e576200064d6200078d565b5b8360020a9150848211156200066857620006676200078d565b5b50620006d8565b5060208310610133831016604e8410600b8410161715620006a95782820a905083811115620006a357620006a26200078d565b5b620006d8565b620006b8848484600162000547565b92509050818404811115620006d257620006d16200078d565b5b81810290505b9392505050565b6000620006ec8262000740565b9150620006f98362000740565b9250817fffffffffffffffffffffffffffffffffffffffffffffffffffffffffffffffff04831182151516156200073557620007346200078d565b5b828202905092915050565b6000819050919050565b600060ff82169050919050565b600060028204905060018216806200077057607f821691505b60208210811415620007875762000786620007bc565b5b50919050565b7f4e487b7100000000000000000000000000000000000000000000000000000000600052601160045260246000fd5b7f4e487b7100000000000000000000000000000000000000000000000000000000600052602260045260246000fd5b60008160011c9050919050565b7f45524332303a206d696e7420746f20746865207a65726f206164647265737300600082015250565b6133e780620008316000396000f3fe6080604052600436106101cd5760003560e01c80637acc0b20116100f7578063a0f7c55a11610095578063d7e81b2b11610064578063d7e81b2b146106d4578063dd62ed3e146106ff578063f2fde38b1461073c578063f533476f14610765576101cd565b8063a0f7c55a14610608578063a457c2d714610631578063a9059cbb1461066e578063ab4d3858146106ab576101cd565b80638da5cb5b116100d15780638da5cb5b146105495780639240c73e1461057457806395d89b411461059f5780639f8e2f88146105ca576101cd565b80637acc0b20146104a15780637dca429f146104e25780638861731514610520576101cd565b8063313ce5671161016f57806348a0d7541161013e57806348a0d754146103e55780635f5152261461041057806370a082311461044d578063715018a61461048a576101cd565b8063313ce5671461032557806335ed166514610350578063395093511461037f57806340c10f19146103bc576101cd565b8063155fe8a4116101ab578063155fe8a41461025657806318160ddd1461029457806323b872dd146102bf5780632ec2c246146102fc576101cd565b806304279d3b146101d257806306fdde03146101ee578063095ea7b314610219575b600080fd5b6101ec60048036038101906101e79190612450565b610790565b005b3480156101fa57600080fd5b50610203610a0f565b6040516102109190612982565b60405180910390f35b34801561022557600080fd5b50610240600480360381019061023b9190612360565b610aa1565b60405161024d9190612967565b60405180910390f35b34801561026257600080fd5b5061027d600480360381019061027891906122a0565b610ac4565b60405161028b929190612b99565b60405180910390f35b3480156102a057600080fd5b506102a9610ae8565b6040516102b69190612b24565b60405180910390f35b3480156102cb57600080fd5b506102e660048036038101906102e1919061230d565b610af2565b6040516102f39190612967565b60405180910390f35b34801561030857600080fd5b50610323600480360381019061031e91906122a0565b610b21565b005b34801561033157600080fd5b5061033a610ca4565b6040516103479190612bc2565b60405180910390f35b34801561035c57600080fd5b50610365610cad565b604051610376959493929190612b3f565b60405180910390f35b34801561038b57600080fd5b506103a660048036038101906103a19190612360565b610d79565b6040516103b39190612967565b60405180910390f35b3480156103c857600080fd5b506103e360048036038101906103de9190612360565b610db0565b005b3480156103f157600080fd5b506103fa610e3a565b6040516104079190612b24565b60405180910390f35b34801561041c57600080fd5b50610437600480360381019061043291906122a0565b610e40565b6040516104449190612b24565b60405180910390f35b34801561045957600080fd5b50610474600480360381019061046f91906122a0565b610e52565b6040516104819190612b24565b60405180910390f35b34801561049657600080fd5b5061049f610e9a565b005b3480156104ad57600080fd5b506104c860048036038101906104c391906123a0565b610f22565b6040516104d9959493929190612b3f565b60405180910390f35b3480156104ee57600080fd5b50610509600480360381019061050491906122a0565b611010565b604051610517929190612b99565b60405180910390f35b34801561052c57600080fd5b50610547600480360381019061054291906123a0565b611034565b005b34801561055557600080fd5b5061055e6110ac565b60405161056b91906128d8565b60405180910390f35b34801561058057600080fd5b506105896110d6565b6040516105969190612b24565b60405180910390f35b3480156105ab57600080fd5b506105b46110e0565b6040516105c19190612982565b60405180910390f35b3480156105d657600080fd5b506105f160048036038101906105ec91906123a0565b611172565b6040516105ff9291906128f3565b60405180910390f35b34801561061457600080fd5b5061062f600480360381019061062a91906123a0565b61124e565b005b34801561063d57600080fd5b5061065860048036038101906106539190612360565b6112c6565b6040516106659190612967565b60405180910390f35b34801561067a57600080fd5b5061069560048036038101906106909190612360565b61133d565b6040516106a29190612967565b60405180910390f35b3480156106b757600080fd5b506106d260048036038101906106cd91906123cd565b611360565b005b3480156106e057600080fd5b506106e9611556565b6040516106f69190612945565b60405180910390f35b34801561070b57600080fd5b50610726600480360381019061072191906122cd565b61169d565b6040516107339190612b24565b60405180910390f35b34801561074857600080fd5b50610763600480360381019061075e91906122a0565b611724565b005b34801561077157600080fd5b5061077a61181c565b6040516107879190612923565b60405180910390f35b6001600f60003373ffffffffffffffffffffffffffffffffffffffff1673ffffffffffffffffffffffffffffffffffffffff1681526020019081526020016000206000015414610815576040517f08c379a000000000000000000000000000000000000000000000000000000000815260040161080c90612ac4565b60405180910390fd5b60005b600160068054905061082a9190612db3565b81116108b257836006828154811061084557610844612ff3565b5b90600052602060002090600502016000015414156108a157600d600081548092919061087090612e90565b919050555060016006828154811061088b5761088a612ff3565b5b9060005260206000209060050201600401819055505b806108ab90612f1d565b9050610818565b506108d633836064605f856108c79190612d59565b6108d19190612d28565b611981565b6108f9333060646005856108ea9190612d59565b6108f49190612d28565b611981565b610901612091565b33816000019073ffffffffffffffffffffffffffffffffffffffff16908173ffffffffffffffffffffffffffffffffffffffff16815250506040518060400160405280600d81526020017f47726561742050726f64756374000000000000000000000000000000000000008152508160200181905250600781908060018154018082558091505060019003906000526020600020906002020160009091909190915060008201518160000160006101000a81548173ffffffffffffffffffffffffffffffffffffffff021916908373ffffffffffffffffffffffffffffffffffffffff1602179055506020820151816001019080519060200190610a069291906120c1565b50505050505050565b606060038054610a1e90612eba565b80601f0160208091040260200160405190810160405280929190818152602001828054610a4a90612eba565b8015610a975780601f10610a6c57610100808354040283529160200191610a97565b820191906000526020600020905b815481529060010190602001808311610a7a57829003601f168201915b5050505050905090565b600080610aac611c02565b9050610ab9818585611c0a565b600191505092915050565b60106020528060005260406000206000915090508060000154908060010154905082565b6000600254905090565b600080610afd611c02565b9050610b0a858285611dd5565b610b15858585611981565b60019150509392505050565b600e60009054906101000a900473ffffffffffffffffffffffffffffffffffffffff1673ffffffffffffffffffffffffffffffffffffffff163373ffffffffffffffffffffffffffffffffffffffff1614610b7b57600080fd5b6001600f60008373ffffffffffffffffffffffffffffffffffffffff1673ffffffffffffffffffffffffffffffffffffffff1681526020019081526020016000206000015414610c0e576000600f60008373ffffffffffffffffffffffffffffffffffffffff1673ffffffffffffffffffffffffffffffffffffffff168152602001908152602001600020600001819055505b6002601060008373ffffffffffffffffffffffffffffffffffffffff1673ffffffffffffffffffffffffffffffffffffffff1681526020019081526020016000206000015414610ca1576000601060008373ffffffffffffffffffffffffffffffffffffffff1673ffffffffffffffffffffffffffffffffffffffff168152602001908152602001600020600001819055505b50565b60006012905090565b60088060000154908060010160009054906101000a900473ffffffffffffffffffffffffffffffffffffffff1690806002018054610cea90612eba565b80601f0160208091040260200160405190810160405280929190818152602001828054610d1690612eba565b8015610d635780601f10610d3857610100808354040283529160200191610d63565b820191906000526020600020905b815481529060010190602001808311610d4657829003601f168201915b5050505050908060030154908060040154905085565b600080610d84611c02565b9050610da5818585610d96858961169d565b610da09190612cd2565b611c0a565b600191505092915050565b610db8611c02565b73ffffffffffffffffffffffffffffffffffffffff16610dd66110ac565b73ffffffffffffffffffffffffffffffffffffffff1614610e2c576040517f08c379a0000000000000000000000000000000000000000000000000000000008152600401610e2390612a64565b60405180910390fd5b610e368282611e61565b5050565b600d5481565b6000610e4b82610e52565b9050919050565b60008060008373ffffffffffffffffffffffffffffffffffffffff1673ffffffffffffffffffffffffffffffffffffffff168152602001908152602001600020549050919050565b610ea2611c02565b73ffffffffffffffffffffffffffffffffffffffff16610ec06110ac565b73ffffffffffffffffffffffffffffffffffffffff1614610f16576040517f08c379a0000000000000000000000000000000000000000000000000000000008152600401610f0d90612a64565b60405180910390fd5b610f206000611fc1565b565b60068181548110610f3257600080fd5b90600052602060002090600502016000915090508060000154908060010160009054906101000a900473ffffffffffffffffffffffffffffffffffffffff1690806002018054610f8190612eba565b80601f0160208091040260200160405190810160405280929190818152602001828054610fad90612eba565b8015610ffa5780601f10610fcf57610100808354040283529160200191610ffa565b820191906000526020600020905b815481529060010190602001808311610fdd57829003601f168201915b5050505050908060030154908060040154905085565b600f6020528060005260406000206000915090508060000154908060010154905082565b6002601060003373ffffffffffffffffffffffffffffffffffffffff1673ffffffffffffffffffffffffffffffffffffffff168152602001908152602001600020600001819055506110a9600e60009054906101000a900473ffffffffffffffffffffffffffffffffffffffff163383611981565b50565b6000600560009054906101000a900473ffffffffffffffffffffffffffffffffffffffff16905090565b6000600d54905090565b6060600480546110ef90612eba565b80601f016020809104026020016040519081016040528092919081815260200182805461111b90612eba565b80156111685780601f1061113d57610100808354040283529160200191611168565b820191906000526020600020905b81548152906001019060200180831161114b57829003601f168201915b5050505050905090565b6007818154811061118257600080fd5b90600052602060002090600202016000915090508060000160009054906101000a900473ffffffffffffffffffffffffffffffffffffffff16908060010180546111cb90612eba565b80601f01602080910402602001604051908101604052809291908181526020018280546111f790612eba565b80156112445780601f1061121957610100808354040283529160200191611244565b820191906000526020600020905b81548152906001019060200180831161122757829003601f168201915b5050505050905082565b6001600f60003373ffffffffffffffffffffffffffffffffffffffff1673ffffffffffffffffffffffffffffffffffffffff168152602001908152602001600020600001819055506112c3600e60009054906101000a900473ffffffffffffffffffffffffffffffffffffffff163383611981565b50565b6000806112d1611c02565b905060006112df828661169d565b905083811015611324576040517f08c379a000000000000000000000000000000000000000000000000000000000815260040161131b90612ae4565b60405180910390fd5b6113318286868403611c0a565b60019250505092915050565b600080611348611c02565b9050611355818585611981565b600191505092915050565b6002601060003373ffffffffffffffffffffffffffffffffffffffff1673ffffffffffffffffffffffffffffffffffffffff16815260200190815260200160002060000154146113e5576040517f08c379a00000000000000000000000000000000000000000000000000000000081526004016113dc90612a44565b60405180910390fd5b8360086000018190555080600860020190805190602001906114089291906120c1565b508160086003018190555082600860010160006101000a81548173ffffffffffffffffffffffffffffffffffffffff021916908373ffffffffffffffffffffffffffffffffffffffff1602179055506000600860040181905550600660089080600181540180825580915050600190039060005260206000209060050201600090919091909150600082015481600001556001820160009054906101000a900473ffffffffffffffffffffffffffffffffffffffff168160010160006101000a81548173ffffffffffffffffffffffffffffffffffffffff021916908373ffffffffffffffffffffffffffffffffffffffff160217905550600282018160020190805461151490612eba565b61151f929190612147565b50600382015481600301556004820154816004015550506001600d60008282546115499190612cd2565b9250508190555050505050565b60606007805480602002602001604051908101604052809291908181526020016000905b8282101561169457838290600052602060002090600202016040518060400160405290816000820160009054906101000a900473ffffffffffffffffffffffffffffffffffffffff1673ffffffffffffffffffffffffffffffffffffffff1673ffffffffffffffffffffffffffffffffffffffff16815260200160018201805461160390612eba565b80601f016020809104026020016040519081016040528092919081815260200182805461162f90612eba565b801561167c5780601f106116515761010080835404028352916020019161167c565b820191906000526020600020905b81548152906001019060200180831161165f57829003601f168201915b5050505050815250508152602001906001019061157a565b50505050905090565b6000600160008473ffffffffffffffffffffffffffffffffffffffff1673ffffffffffffffffffffffffffffffffffffffff16815260200190815260200160002060008373ffffffffffffffffffffffffffffffffffffffff1673ffffffffffffffffffffffffffffffffffffffff16815260200190815260200160002054905092915050565b61172c611c02565b73ffffffffffffffffffffffffffffffffffffffff1661174a6110ac565b73ffffffffffffffffffffffffffffffffffffffff16146117a0576040517f08c379a000000000000000000000000000000000000000000000000000000000815260040161179790612a64565b60405180910390fd5b600073ffffffffffffffffffffffffffffffffffffffff168173ffffffffffffffffffffffffffffffffffffffff161415611810576040517f08c379a0000000000000000000000000000000000000000000000000000000008152600401611807906129c4565b60405180910390fd5b61181981611fc1565b50565b60606006805480602002602001604051908101604052809291908181526020016000905b8282101561197857838290600052602060002090600502016040518060a0016040529081600082015481526020016001820160009054906101000a900473ffffffffffffffffffffffffffffffffffffffff1673ffffffffffffffffffffffffffffffffffffffff1673ffffffffffffffffffffffffffffffffffffffff1681526020016002820180546118d390612eba565b80601f01602080910402602001604051908101604052809291908181526020018280546118ff90612eba565b801561194c5780601f106119215761010080835404028352916020019161194c565b820191906000526020600020905b81548152906001019060200180831161192f57829003601f168201915b505050505081526020016003820154815260200160048201548152505081526020019060010190611840565b50505050905090565b600073ffffffffffffffffffffffffffffffffffffffff168373ffffffffffffffffffffffffffffffffffffffff1614156119f1576040517f08c379a00000000000000000000000000000000000000000000000000000000081526004016119e890612a84565b60405180910390fd5b600073ffffffffffffffffffffffffffffffffffffffff168273ffffffffffffffffffffffffffffffffffffffff161415611a61576040517f08c379a0000000000000000000000000000000000000000000000000000000008152600401611a58906129a4565b60405180910390fd5b611a6c838383612087565b60008060008573ffffffffffffffffffffffffffffffffffffffff1673ffffffffffffffffffffffffffffffffffffffff16815260200190815260200160002054905081811015611af2576040517f08c379a0000000000000000000000000000000000000000000000000000000008152600401611ae990612a24565b60405180910390fd5b8181036000808673ffffffffffffffffffffffffffffffffffffffff1673ffffffffffffffffffffffffffffffffffffffff16815260200190815260200160002081905550816000808573ffffffffffffffffffffffffffffffffffffffff1673ffffffffffffffffffffffffffffffffffffffff1681526020019081526020016000206000828254611b859190612cd2565b925050819055508273ffffffffffffffffffffffffffffffffffffffff168473ffffffffffffffffffffffffffffffffffffffff167fddf252ad1be2c89b69c2b068fc378daa952ba7f163c4a11628f55a4df523b3ef84604051611be99190612b24565b60405180910390a3611bfc84848461208c565b50505050565b600033905090565b600073ffffffffffffffffffffffffffffffffffffffff168373ffffffffffffffffffffffffffffffffffffffff161415611c7a576040517f08c379a0000000000000000000000000000000000000000000000000000000008152600401611c7190612aa4565b60405180910390fd5b600073ffffffffffffffffffffffffffffffffffffffff168273ffffffffffffffffffffffffffffffffffffffff161415611cea576040517f08c379a0000000000000000000000000000000000000000000000000000000008152600401611ce1906129e4565b60405180910390fd5b80600160008573ffffffffffffffffffffffffffffffffffffffff1673ffffffffffffffffffffffffffffffffffffffff16815260200190815260200160002060008473ffffffffffffffffffffffffffffffffffffffff1673ffffffffffffffffffffffffffffffffffffffff168152602001908152602001600020819055508173ffffffffffffffffffffffffffffffffffffffff168373ffffffffffffffffffffffffffffffffffffffff167f8c5be1e5ebec7d5bd14f71427d1e84f3dd0314c0f7b2291e5b200ac8c7c3b92583604051611dc89190612b24565b60405180910390a3505050565b6000611de1848461169d565b90507fffffffffffffffffffffffffffffffffffffffffffffffffffffffffffffffff8114611e5b5781811015611e4d576040517f08c379a0000000000000000000000000000000000000000000000000000000008152600401611e4490612a04565b60405180910390fd5b611e5a8484848403611c0a565b5b50505050565b600073ffffffffffffffffffffffffffffffffffffffff168273ffffffffffffffffffffffffffffffffffffffff161415611ed1576040517f08c379a0000000000000000000000000000000000000000000000000000000008152600401611ec890612b04565b60405180910390fd5b611edd60008383612087565b8060026000828254611eef9190612cd2565b92505081905550806000808473ffffffffffffffffffffffffffffffffffffffff1673ffffffffffffffffffffffffffffffffffffffff1681526020019081526020016000206000828254611f449190612cd2565b925050819055508173ffffffffffffffffffffffffffffffffffffffff16600073ffffffffffffffffffffffffffffffffffffffff167fddf252ad1be2c89b69c2b068fc378daa952ba7f163c4a11628f55a4df523b3ef83604051611fa99190612b24565b60405180910390a3611fbd6000838361208c565b5050565b6000600560009054906101000a900473ffffffffffffffffffffffffffffffffffffffff16905081600560006101000a81548173ffffffffffffffffffffffffffffffffffffffff021916908373ffffffffffffffffffffffffffffffffffffffff1602179055508173ffffffffffffffffffffffffffffffffffffffff168173ffffffffffffffffffffffffffffffffffffffff167f8be0079c531659141344cd1fd0a4f28419497f9722a3daafe3b4186f6b6457e060405160405180910390a35050565b505050565b505050565b6040518060400160405280600073ffffffffffffffffffffffffffffffffffffffff168152602001606081525090565b8280546120cd90612eba565b90600052602060002090601f0160209004810192826120ef5760008555612136565b82601f1061210857805160ff1916838001178555612136565b82800160010185558215612136579182015b8281111561213557825182559160200191906001019061211a565b5b50905061214391906121d4565b5090565b82805461215390612eba565b90600052602060002090601f01602090048101928261217557600085556121c3565b82601f1061218657805485556121c3565b828001600101855582156121c357600052602060002091601f016020900482015b828111156121c25782548255916001019190600101906121a7565b5b5090506121d091906121d4565b5090565b5b808211156121ed5760008160009055506001016121d5565b5090565b60006122046121ff84612c02565b612bdd565b9050828152602081018484840111156122205761221f613056565b5b61222b848285612e4e565b509392505050565b6000813590506122428161336c565b92915050565b60008135905061225781613383565b92915050565b600082601f83011261227257612271613051565b5b81356122828482602086016121f1565b91505092915050565b60008135905061229a8161339a565b92915050565b6000602082840312156122b6576122b5613060565b5b60006122c484828501612233565b91505092915050565b600080604083850312156122e4576122e3613060565b5b60006122f285828601612233565b925050602061230385828601612233565b9150509250929050565b60008060006060848603121561232657612325613060565b5b600061233486828701612233565b935050602061234586828701612233565b92505060406123568682870161228b565b9150509250925092565b6000806040838503121561237757612376613060565b5b600061238585828601612233565b92505060206123968582860161228b565b9150509250929050565b6000602082840312156123b6576123b5613060565b5b60006123c48482850161228b565b91505092915050565b600080600080608085870312156123e7576123e6613060565b5b60006123f58782880161228b565b945050602061240687828801612248565b93505060406124178782880161228b565b925050606085013567ffffffffffffffff8111156124385761243761305b565b5b6124448782880161225d565b91505092959194509250565b60008060006060848603121561246957612468613060565b5b60006124778682870161228b565b935050602061248886828701612233565b92505060406124998682870161228b565b9150509250925092565b60006124af83836127f8565b905092915050565b60006124c3838361286e565b905092915050565b6124d481612de7565b82525050565b6124e381612de7565b82525050565b60006124f482612c53565b6124fe8185612c8e565b93508360208202850161251085612c33565b8060005b8581101561254c578484038952815161252d85826124a3565b945061253883612c74565b925060208a01995050600181019050612514565b50829750879550505050505092915050565b600061256982612c5e565b6125738185612c9f565b93508360208202850161258585612c43565b8060005b858110156125c157848403895281516125a285826124b7565b94506125ad83612c81565b925060208a01995050600181019050612589565b50829750879550505050505092915050565b6125dc81612e0b565b82525050565b60006125ed82612c69565b6125f78185612cb0565b9350612607818560208601612e5d565b61261081613065565b840191505092915050565b600061262682612c69565b6126308185612cc1565b9350612640818560208601612e5d565b61264981613065565b840191505092915050565b6000612661602383612cc1565b915061266c82613076565b604082019050919050565b6000612684602683612cc1565b915061268f826130c5565b604082019050919050565b60006126a7602283612cc1565b91506126b282613114565b604082019050919050565b60006126ca601d83612cc1565b91506126d582613163565b602082019050919050565b60006126ed602683612cc1565b91506126f88261318c565b604082019050919050565b6000612710601183612cc1565b915061271b826131db565b602082019050919050565b6000612733602083612cc1565b915061273e82613204565b602082019050919050565b6000612756602583612cc1565b91506127618261322d565b604082019050919050565b6000612779602483612cc1565b91506127848261327c565b604082019050919050565b600061279c601083612cc1565b91506127a7826132cb565b602082019050919050565b60006127bf602583612cc1565b91506127ca826132f4565b604082019050919050565b60006127e2601f83612cc1565b91506127ed82613343565b602082019050919050565b600060a08301600083015161281060008601826128ab565b50602083015161282360208601826124cb565b506040830151848203604086015261283b82826125e2565b915050606083015161285060608601826128ab565b50608083015161286360808601826128ab565b508091505092915050565b600060408301600083015161288660008601826124cb565b506020830151848203602086015261289e82826125e2565b9150508091505092915050565b6128b481612e37565b82525050565b6128c381612e37565b82525050565b6128d281612e41565b82525050565b60006020820190506128ed60008301846124da565b92915050565b600060408201905061290860008301856124da565b818103602083015261291a818461261b565b90509392505050565b6000602082019050818103600083015261293d81846124e9565b905092915050565b6000602082019050818103600083015261295f818461255e565b905092915050565b600060208201905061297c60008301846125d3565b92915050565b6000602082019050818103600083015261299c818461261b565b905092915050565b600060208201905081810360008301526129bd81612654565b9050919050565b600060208201905081810360008301526129dd81612677565b9050919050565b600060208201905081810360008301526129fd8161269a565b9050919050565b60006020820190508181036000830152612a1d816126bd565b9050919050565b60006020820190508181036000830152612a3d816126e0565b9050919050565b60006020820190508181036000830152612a5d81612703565b9050919050565b60006020820190508181036000830152612a7d81612726565b9050919050565b60006020820190508181036000830152612a9d81612749565b9050919050565b60006020820190508181036000830152612abd8161276c565b9050919050565b60006020820190508181036000830152612add8161278f565b9050919050565b60006020820190508181036000830152612afd816127b2565b9050919050565b60006020820190508181036000830152612b1d816127d5565b9050919050565b6000602082019050612b3960008301846128ba565b92915050565b600060a082019050612b5460008301886128ba565b612b6160208301876124da565b8181036040830152612b73818661261b565b9050612b8260608301856128ba565b612b8f60808301846128ba565b9695505050505050565b6000604082019050612bae60008301856128ba565b612bbb60208301846128ba565b9392505050565b6000602082019050612bd760008301846128c9565b92915050565b6000612be7612bf8565b9050612bf38282612eec565b919050565b6000604051905090565b600067ffffffffffffffff821115612c1d57612c1c613022565b5b612c2682613065565b9050602081019050919050565b6000819050602082019050919050565b6000819050602082019050919050565b600081519050919050565b600081519050919050565b600081519050919050565b6000602082019050919050565b6000602082019050919050565b600082825260208201905092915050565b600082825260208201905092915050565b600082825260208201905092915050565b600082825260208201905092915050565b6000612cdd82612e37565b9150612ce883612e37565b9250827fffffffffffffffffffffffffffffffffffffffffffffffffffffffffffffffff03821115612d1d57612d1c612f66565b5b828201905092915050565b6000612d3382612e37565b9150612d3e83612e37565b925082612d4e57612d4d612f95565b5b828204905092915050565b6000612d6482612e37565b9150612d6f83612e37565b9250817fffffffffffffffffffffffffffffffffffffffffffffffffffffffffffffffff0483118215151615612da857612da7612f66565b5b828202905092915050565b6000612dbe82612e37565b9150612dc983612e37565b925082821015612ddc57612ddb612f66565b5b828203905092915050565b6000612df282612e17565b9050919050565b6000612e0482612e17565b9050919050565b60008115159050919050565b600073ffffffffffffffffffffffffffffffffffffffff82169050919050565b6000819050919050565b600060ff82169050919050565b82818337600083830152505050565b60005b83811015612e7b578082015181840152602081019050612e60565b83811115612e8a576000848401525b50505050565b6000612e9b82612e37565b91506000821415612eaf57612eae612f66565b5b600182039050919050565b60006002820490506001821680612ed257607f821691505b60208210811415612ee657612ee5612fc4565b5b50919050565b612ef582613065565b810181811067ffffffffffffffff82111715612f1457612f13613022565b5b80604052505050565b6000612f2882612e37565b91507fffffffffffffffffffffffffffffffffffffffffffffffffffffffffffffffff821415612f5b57612f5a612f66565b5b600182019050919050565b7f4e487b7100000000000000000000000000000000000000000000000000000000600052601160045260246000fd5b7f4e487b7100000000000000000000000000000000000000000000000000000000600052601260045260246000fd5b7f4e487b7100000000000000000000000000000000000000000000000000000000600052602260045260246000fd5b7f4e487b7100000000000000000000000000000000000000000000000000000000600052603260045260246000fd5b7f4e487b7100000000000000000000000000000000000000000000000000000000600052604160045260246000fd5b600080fd5b600080fd5b600080fd5b600080fd5b6000601f19601f8301169050919050565b7f45524332303a207472616e7366657220746f20746865207a65726f206164647260008201527f6573730000000000000000000000000000000000000000000000000000000000602082015250565b7f4f776e61626c653a206e6577206f776e657220697320746865207a65726f206160008201527f6464726573730000000000000000000000000000000000000000000000000000602082015250565b7f45524332303a20617070726f766520746f20746865207a65726f20616464726560008201527f7373000000000000000000000000000000000000000000000000000000000000602082015250565b7f45524332303a20696e73756666696369656e7420616c6c6f77616e6365000000600082015250565b7f45524332303a207472616e7366657220616d6f756e742065786365656473206260008201527f616c616e63650000000000000000000000000000000000000000000000000000602082015250565b7f526567697374657265642053656c6c6572000000000000000000000000000000600082015250565b7f4f776e61626c653a2063616c6c6572206973206e6f7420746865206f776e6572600082015250565b7f45524332303a207472616e736665722066726f6d20746865207a65726f20616460008201527f6472657373000000000000000000000000000000000000000000000000000000602082015250565b7f45524332303a20617070726f76652066726f6d20746865207a65726f2061646460008201527f7265737300000000000000000000000000000000000000000000000000000000602082015250565b7f5265676973746572656420427579657200000000000000000000000000000000600082015250565b7f45524332303a2064656372656173656420616c6c6f77616e63652062656c6f7760008201527f207a65726f000000000000000000000000000000000000000000000000000000602082015250565b7f45524332303a206d696e7420746f20746865207a65726f206164647265737300600082015250565b61337581612de7565b811461338057600080fd5b50565b61338c81612df9565b811461339757600080fd5b50565b6133a381612e37565b81146133ae57600080fd5b5056fea2646970667358221220dc797b1da49985ab88797ccbbdb7ba09c1e68d5800eb0af2449cfeb6a3a5509364736f6c63430008070033",
  "immutableReferences": {},
  "source": "//SPDX-License-Identifier: UNLICENSED\npragma solidity ^0.8.4;\n\nimport \"./token/ERC20/ERC20.sol\";\nimport \"./MyOwnable.sol\";\npragma experimental ABIEncoderV2;\ncontract BI is ERC20, Ownable\n{\n    struct Product\n    {\n        uint prodID;\n        address owner;\n        string description;\n        uint price;\n        uint sold;\n    }\n\n    struct boughtProduct {\n        address boughtBy;\n        string review;\n    }\n    \n    struct Buyer {\n        uint regStatus;\n        uint buyerBal;\n    }\n    \n    struct Seller {\n        uint regStatus;\n        uint sellerBal;\n    }\n    Product[] public products;\n    \n    boughtProduct[] public transferredProducts; \n    Product public productinfo;\n    uint public available;\n    address chairperson;\n\n    mapping(address => Buyer) public Buyers;\n    mapping(address => Seller) public Sellers;\n    \n    constructor () ERC20(\"BuffaloInstrumentsToken\", \"BITS\")  { \n        _mint(msg.sender, 1000000 * 10 ** decimals());\n        chairperson = msg.sender;\n        \n    }\n\n    modifier onlyChairperson{ \n        require(msg.sender==chairperson);\n        _;\n    }\n    \n    modifier validBuyer() {\n        require(Buyers[msg.sender].regStatus == 1, \"Registered Buyer\");\n        _;\n    }\n\n    modifier validSeller() {\n        require(Sellers[msg.sender].regStatus == 2, \"Registered Seller\");\n        _;\n    }\n\n\n    function mint(address to, uint256 amount) public onlyOwner {\n        _mint(to, amount);\n    }\n\n    function registerBuyer(uint amt) public {\n        Buyers[msg.sender].regStatus = 1;\n        _transfer(chairperson,msg.sender, amt);\n        // Buyers[msg.sender].buyerBal = address(msg.sender).balance;\n    }\n\n    function registerSeller(uint amt) public {\n        Sellers[msg.sender].regStatus = 2;\n        _transfer(chairperson,msg.sender, amt);\n        // Sellers[msg.sender].sellerBal = address(msg.sender).balance;\n    }\n\n    function unregister (address addr) onlyChairperson public {\n        \n        if (Buyers[addr].regStatus!= 1) { \n            Buyers[addr].regStatus = 0;\n            // revert();\n        }\n        if (Sellers[addr].regStatus!= 2) {\n            Sellers[addr].regStatus = 0;\n            // revert();\n        }\n        \n    }\n    // function \n    function fillProductInfo(uint id, address payable owner, uint cost, string memory desc) public validSeller {\n       productinfo.prodID = id;\n       productinfo.description = desc;\n       productinfo.price = cost;\n       productinfo.owner = (owner);\n       productinfo.sold = 0;\n       products.push(productinfo);\n       available += 1;\n    }\n\n    function seeProductsInfo () public view returns (Product[] memory) {\n        // Product[] memory temp;\n        // uint i = 0;\n        // for (uint x = 0; x <= products.length - 1; ++x) {\n        //     if (products[x].sold != 1) {\n        //         temp[i] = products[x];\n        //         i+=1;\n        //     }\n        // }\n        return products;\n    }\n    \n    function checkBalance (address acc) public view returns (uint val) {\n        \n        return balanceOf(acc);\n    }\n\n    function checkTransferredProducts () public view returns (boughtProduct[] memory) {\n        \n        return transferredProducts;\n    }\n\n\n    function checknNoOfItems () public view returns (uint) {\n        \n        return available;\n    }\n\n    function buyProducts(uint id, address latest, uint amt) validBuyer payable external {\n        \n        // uint cp;\n        for (uint x = 0; x <= products.length - 1; ++x) {\n            if (products[x].prodID == id) {\n                \n                // cp = products[x].price;\n                available--;\n                products[x].sold = 1;\n            }\n        }\n        // uint cpether = cp * 1000000000000000000; //change it e^18\n        // require(Buyers[msg.sender].buyerBal >= (cpether));\n        // Buyers[msg.sender].buyerBal -= (cpether);\n        // _transfer(msg.sender, latest, amt);\n        _transfer(msg.sender, latest, amt * 95/100);\n        _transfer(msg.sender, address(this), amt * 5/100);\n        boughtProduct memory bp;\n        // bp.unitsBought = count;\n        bp.boughtBy = msg.sender;\n        bp.review = \"Great Product\";\n        \n        transferredProducts.push(bp);\n        \n        // (latest).transfer(cpether);\n\n    }\n\n}",
  "sourcePath": "/Users/vivekreddy/Documents/Spring2022/Blockchain/Code/BI_Final/BI-contract/contracts/BI.sol",
  "compiler": {
    "name": "solc",
    "version": "0.8.7+commit.e28d00a7.Emscripten.clang"
  },
  "schemaVersion": "3.4.7",
  "updatedAt": "2022-05-09T01:16:43.323Z",
  "networkType": "ethereum",
  "devdoc": {
    "kind": "dev",
    "methods": {
      "allowance(address,address)": {
        "details": "See {IERC20-allowance}."
      },
      "approve(address,uint256)": {
        "details": "See {IERC20-approve}. NOTE: If `amount` is the maximum `uint256`, the allowance is not updated on `transferFrom`. This is semantically equivalent to an infinite approval. Requirements: - `spender` cannot be the zero address."
      },
      "balanceOf(address)": {
        "details": "See {IERC20-balanceOf}."
      },
      "decimals()": {
        "details": "Returns the number of decimals used to get its user representation. For example, if `decimals` equals `2`, a balance of `505` tokens should be displayed to a user as `5.05` (`505 / 10 ** 2`). Tokens usually opt for a value of 18, imitating the relationship between Ether and Wei. This is the value {ERC20} uses, unless this function is overridden; NOTE: This information is only used for _display_ purposes: it in no way affects any of the arithmetic of the contract, including {IERC20-balanceOf} and {IERC20-transfer}."
      },
      "decreaseAllowance(address,uint256)": {
        "details": "Atomically decreases the allowance granted to `spender` by the caller. This is an alternative to {approve} that can be used as a mitigation for problems described in {IERC20-approve}. Emits an {Approval} event indicating the updated allowance. Requirements: - `spender` cannot be the zero address. - `spender` must have allowance for the caller of at least `subtractedValue`."
      },
      "increaseAllowance(address,uint256)": {
        "details": "Atomically increases the allowance granted to `spender` by the caller. This is an alternative to {approve} that can be used as a mitigation for problems described in {IERC20-approve}. Emits an {Approval} event indicating the updated allowance. Requirements: - `spender` cannot be the zero address."
      },
      "name()": {
        "details": "Returns the name of the token."
      },
      "owner()": {
        "details": "Returns the address of the current owner."
      },
      "renounceOwnership()": {
        "details": "Leaves the contract without owner. It will not be possible to call `onlyOwner` functions anymore. Can only be called by the current owner. NOTE: Renouncing ownership will leave the contract without an owner, thereby removing any functionality that is only available to the owner."
      },
      "symbol()": {
        "details": "Returns the symbol of the token, usually a shorter version of the name."
      },
      "totalSupply()": {
        "details": "See {IERC20-totalSupply}."
      },
      "transfer(address,uint256)": {
        "details": "See {IERC20-transfer}. Requirements: - `to` cannot be the zero address. - the caller must have a balance of at least `amount`."
      },
      "transferFrom(address,address,uint256)": {
        "details": "See {IERC20-transferFrom}. Emits an {Approval} event indicating the updated allowance. This is not required by the EIP. See the note at the beginning of {ERC20}. NOTE: Does not update the allowance if the current allowance is the maximum `uint256`. Requirements: - `from` and `to` cannot be the zero address. - `from` must have a balance of at least `amount`. - the caller must have allowance for ``from``'s tokens of at least `amount`."
      },
      "transferOwnership(address)": {
        "details": "Transfers ownership of the contract to a new account (`newOwner`). Can only be called by the current owner."
      }
    },
    "version": 1
  },
  "userdoc": {
    "kind": "user",
    "methods": {},
    "version": 1
  }
}