{
  "contractName": "ERC1155PresetMinterPauser",
  "abi": [
    {
      "inputs": [
        {
          "internalType": "string",
          "name": "uri",
          "type": "string"
        }
      ],
      "stateMutability": "nonpayable",
      "type": "constructor"
    },
    {
      "anonymous": false,
      "inputs": [
        {
          "indexed": true,
          "internalType": "address",
          "name": "account",
          "type": "address"
        },
        {
          "indexed": true,
          "internalType": "address",
          "name": "operator",
          "type": "address"
        },
        {
          "indexed": false,
          "internalType": "bool",
          "name": "approved",
          "type": "bool"
        }
      ],
      "name": "ApprovalForAll",
      "type": "event"
    },
    {
      "anonymous": false,
      "inputs": [
        {
          "indexed": false,
          "internalType": "address",
          "name": "account",
          "type": "address"
        }
      ],
      "name": "Paused",
      "type": "event"
    },
    {
      "anonymous": false,
      "inputs": [
        {
          "indexed": true,
          "internalType": "bytes32",
          "name": "role",
          "type": "bytes32"
        },
        {
          "indexed": true,
          "internalType": "bytes32",
          "name": "previousAdminRole",
          "type": "bytes32"
        },
        {
          "indexed": true,
          "internalType": "bytes32",
          "name": "newAdminRole",
          "type": "bytes32"
        }
      ],
      "name": "RoleAdminChanged",
      "type": "event"
    },
    {
      "anonymous": false,
      "inputs": [
        {
          "indexed": true,
          "internalType": "bytes32",
          "name": "role",
          "type": "bytes32"
        },
        {
          "indexed": true,
          "internalType": "address",
          "name": "account",
          "type": "address"
        },
        {
          "indexed": true,
          "internalType": "address",
          "name": "sender",
          "type": "address"
        }
      ],
      "name": "RoleGranted",
      "type": "event"
    },
    {
      "anonymous": false,
      "inputs": [
        {
          "indexed": true,
          "internalType": "bytes32",
          "name": "role",
          "type": "bytes32"
        },
        {
          "indexed": true,
          "internalType": "address",
          "name": "account",
          "type": "address"
        },
        {
          "indexed": true,
          "internalType": "address",
          "name": "sender",
          "type": "address"
        }
      ],
      "name": "RoleRevoked",
      "type": "event"
    },
    {
      "anonymous": false,
      "inputs": [
        {
          "indexed": true,
          "internalType": "address",
          "name": "operator",
          "type": "address"
        },
        {
          "indexed": true,
          "internalType": "address",
          "name": "from",
          "type": "address"
        },
        {
          "indexed": true,
          "internalType": "address",
          "name": "to",
          "type": "address"
        },
        {
          "indexed": false,
          "internalType": "uint256[]",
          "name": "ids",
          "type": "uint256[]"
        },
        {
          "indexed": false,
          "internalType": "uint256[]",
          "name": "values",
          "type": "uint256[]"
        }
      ],
      "name": "TransferBatch",
      "type": "event"
    },
    {
      "anonymous": false,
      "inputs": [
        {
          "indexed": true,
          "internalType": "address",
          "name": "operator",
          "type": "address"
        },
        {
          "indexed": true,
          "internalType": "address",
          "name": "from",
          "type": "address"
        },
        {
          "indexed": true,
          "internalType": "address",
          "name": "to",
          "type": "address"
        },
        {
          "indexed": false,
          "internalType": "uint256",
          "name": "id",
          "type": "uint256"
        },
        {
          "indexed": false,
          "internalType": "uint256",
          "name": "value",
          "type": "uint256"
        }
      ],
      "name": "TransferSingle",
      "type": "event"
    },
    {
      "anonymous": false,
      "inputs": [
        {
          "indexed": false,
          "internalType": "string",
          "name": "value",
          "type": "string"
        },
        {
          "indexed": true,
          "internalType": "uint256",
          "name": "id",
          "type": "uint256"
        }
      ],
      "name": "URI",
      "type": "event"
    },
    {
      "anonymous": false,
      "inputs": [
        {
          "indexed": false,
          "internalType": "address",
          "name": "account",
          "type": "address"
        }
      ],
      "name": "Unpaused",
      "type": "event"
    },
    {
      "inputs": [],
      "name": "DEFAULT_ADMIN_ROLE",
      "outputs": [
        {
          "internalType": "bytes32",
          "name": "",
          "type": "bytes32"
        }
      ],
      "stateMutability": "view",
      "type": "function"
    },
    {
      "inputs": [],
      "name": "MINTER_ROLE",
      "outputs": [
        {
          "internalType": "bytes32",
          "name": "",
          "type": "bytes32"
        }
      ],
      "stateMutability": "view",
      "type": "function"
    },
    {
      "inputs": [],
      "name": "PAUSER_ROLE",
      "outputs": [
        {
          "internalType": "bytes32",
          "name": "",
          "type": "bytes32"
        }
      ],
      "stateMutability": "view",
      "type": "function"
    },
    {
      "inputs": [
        {
          "internalType": "address",
          "name": "account",
          "type": "address"
        },
        {
          "internalType": "uint256",
          "name": "id",
          "type": "uint256"
        }
      ],
      "name": "balanceOf",
      "outputs": [
        {
          "internalType": "uint256",
          "name": "",
          "type": "uint256"
        }
      ],
      "stateMutability": "view",
      "type": "function"
    },
    {
      "inputs": [
        {
          "internalType": "address[]",
          "name": "accounts",
          "type": "address[]"
        },
        {
          "internalType": "uint256[]",
          "name": "ids",
          "type": "uint256[]"
        }
      ],
      "name": "balanceOfBatch",
      "outputs": [
        {
          "internalType": "uint256[]",
          "name": "",
          "type": "uint256[]"
        }
      ],
      "stateMutability": "view",
      "type": "function"
    },
    {
      "inputs": [
        {
          "internalType": "address",
          "name": "account",
          "type": "address"
        },
        {
          "internalType": "uint256",
          "name": "id",
          "type": "uint256"
        },
        {
          "internalType": "uint256",
          "name": "value",
          "type": "uint256"
        }
      ],
      "name": "burn",
      "outputs": [],
      "stateMutability": "nonpayable",
      "type": "function"
    },
    {
      "inputs": [
        {
          "internalType": "address",
          "name": "account",
          "type": "address"
        },
        {
          "internalType": "uint256[]",
          "name": "ids",
          "type": "uint256[]"
        },
        {
          "internalType": "uint256[]",
          "name": "values",
          "type": "uint256[]"
        }
      ],
      "name": "burnBatch",
      "outputs": [],
      "stateMutability": "nonpayable",
      "type": "function"
    },
    {
      "inputs": [
        {
          "internalType": "bytes32",
          "name": "role",
          "type": "bytes32"
        }
      ],
      "name": "getRoleAdmin",
      "outputs": [
        {
          "internalType": "bytes32",
          "name": "",
          "type": "bytes32"
        }
      ],
      "stateMutability": "view",
      "type": "function"
    },
    {
      "inputs": [
        {
          "internalType": "bytes32",
          "name": "role",
          "type": "bytes32"
        },
        {
          "internalType": "uint256",
          "name": "index",
          "type": "uint256"
        }
      ],
      "name": "getRoleMember",
      "outputs": [
        {
          "internalType": "address",
          "name": "",
          "type": "address"
        }
      ],
      "stateMutability": "view",
      "type": "function"
    },
    {
      "inputs": [
        {
          "internalType": "bytes32",
          "name": "role",
          "type": "bytes32"
        }
      ],
      "name": "getRoleMemberCount",
      "outputs": [
        {
          "internalType": "uint256",
          "name": "",
          "type": "uint256"
        }
      ],
      "stateMutability": "view",
      "type": "function"
    },
    {
      "inputs": [
        {
          "internalType": "bytes32",
          "name": "role",
          "type": "bytes32"
        },
        {
          "internalType": "address",
          "name": "account",
          "type": "address"
        }
      ],
      "name": "grantRole",
      "outputs": [],
      "stateMutability": "nonpayable",
      "type": "function"
    },
    {
      "inputs": [
        {
          "internalType": "bytes32",
          "name": "role",
          "type": "bytes32"
        },
        {
          "internalType": "address",
          "name": "account",
          "type": "address"
        }
      ],
      "name": "hasRole",
      "outputs": [
        {
          "internalType": "bool",
          "name": "",
          "type": "bool"
        }
      ],
      "stateMutability": "view",
      "type": "function"
    },
    {
      "inputs": [
        {
          "internalType": "address",
          "name": "account",
          "type": "address"
        },
        {
          "internalType": "address",
          "name": "operator",
          "type": "address"
        }
      ],
      "name": "isApprovedForAll",
      "outputs": [
        {
          "internalType": "bool",
          "name": "",
          "type": "bool"
        }
      ],
      "stateMutability": "view",
      "type": "function"
    },
    {
      "inputs": [],
      "name": "paused",
      "outputs": [
        {
          "internalType": "bool",
          "name": "",
          "type": "bool"
        }
      ],
      "stateMutability": "view",
      "type": "function"
    },
    {
      "inputs": [
        {
          "internalType": "bytes32",
          "name": "role",
          "type": "bytes32"
        },
        {
          "internalType": "address",
          "name": "account",
          "type": "address"
        }
      ],
      "name": "renounceRole",
      "outputs": [],
      "stateMutability": "nonpayable",
      "type": "function"
    },
    {
      "inputs": [
        {
          "internalType": "bytes32",
          "name": "role",
          "type": "bytes32"
        },
        {
          "internalType": "address",
          "name": "account",
          "type": "address"
        }
      ],
      "name": "revokeRole",
      "outputs": [],
      "stateMutability": "nonpayable",
      "type": "function"
    },
    {
      "inputs": [
        {
          "internalType": "address",
          "name": "from",
          "type": "address"
        },
        {
          "internalType": "address",
          "name": "to",
          "type": "address"
        },
        {
          "internalType": "uint256[]",
          "name": "ids",
          "type": "uint256[]"
        },
        {
          "internalType": "uint256[]",
          "name": "amounts",
          "type": "uint256[]"
        },
        {
          "internalType": "bytes",
          "name": "data",
          "type": "bytes"
        }
      ],
      "name": "safeBatchTransferFrom",
      "outputs": [],
      "stateMutability": "nonpayable",
      "type": "function"
    },
    {
      "inputs": [
        {
          "internalType": "address",
          "name": "from",
          "type": "address"
        },
        {
          "internalType": "address",
          "name": "to",
          "type": "address"
        },
        {
          "internalType": "uint256",
          "name": "id",
          "type": "uint256"
        },
        {
          "internalType": "uint256",
          "name": "amount",
          "type": "uint256"
        },
        {
          "internalType": "bytes",
          "name": "data",
          "type": "bytes"
        }
      ],
      "name": "safeTransferFrom",
      "outputs": [],
      "stateMutability": "nonpayable",
      "type": "function"
    },
    {
      "inputs": [
        {
          "internalType": "address",
          "name": "operator",
          "type": "address"
        },
        {
          "internalType": "bool",
          "name": "approved",
          "type": "bool"
        }
      ],
      "name": "setApprovalForAll",
      "outputs": [],
      "stateMutability": "nonpayable",
      "type": "function"
    },
    {
      "inputs": [
        {
          "internalType": "uint256",
          "name": "",
          "type": "uint256"
        }
      ],
      "name": "uri",
      "outputs": [
        {
          "internalType": "string",
          "name": "",
          "type": "string"
        }
      ],
      "stateMutability": "view",
      "type": "function"
    },
    {
      "inputs": [
        {
          "internalType": "address",
          "name": "to",
          "type": "address"
        },
        {
          "internalType": "uint256",
          "name": "id",
          "type": "uint256"
        },
        {
          "internalType": "uint256",
          "name": "amount",
          "type": "uint256"
        },
        {
          "internalType": "bytes",
          "name": "data",
          "type": "bytes"
        }
      ],
      "name": "mint",
      "outputs": [],
      "stateMutability": "nonpayable",
      "type": "function"
    },
    {
      "inputs": [
        {
          "internalType": "address",
          "name": "to",
          "type": "address"
        },
        {
          "internalType": "uint256[]",
          "name": "ids",
          "type": "uint256[]"
        },
        {
          "internalType": "uint256[]",
          "name": "amounts",
          "type": "uint256[]"
        },
        {
          "internalType": "bytes",
          "name": "data",
          "type": "bytes"
        }
      ],
      "name": "mintBatch",
      "outputs": [],
      "stateMutability": "nonpayable",
      "type": "function"
    },
    {
      "inputs": [],
      "name": "pause",
      "outputs": [],
      "stateMutability": "nonpayable",
      "type": "function"
    },
    {
      "inputs": [],
      "name": "unpause",
      "outputs": [],
      "stateMutability": "nonpayable",
      "type": "function"
    },
    {
      "inputs": [
        {
          "internalType": "bytes4",
          "name": "interfaceId",
          "type": "bytes4"
        }
      ],
      "name": "supportsInterface",
      "outputs": [
        {
          "internalType": "bool",
          "name": "",
          "type": "bool"
        }
      ],
      "stateMutability": "view",
      "type": "function"
    }
  ],
  "bytecode": "0x60806040523480156200001157600080fd5b506040516200534e3803806200534e8339818101604052810190620000379190620004f2565b8062000049816200011260201b60201c565b506000600560006101000a81548160ff021916908315150217905550620000896000801b6200007d6200012e60201b60201c565b6200013660201b60201c565b620000ca7f9f2df0fed2c77648de5860a4cc508cd0818c85b8b8a1ab4ceeef8d981c8956a6620000be6200012e60201b60201c565b6200013660201b60201c565b6200010b7f65d7a28e3265b37a6474929f336521b332c1681b933f6cb9f3376673440d862a620000ff6200012e60201b60201c565b6200013660201b60201c565b50620006c7565b80600490805190602001906200012a929190620003c4565b5050565b600033905090565b6200014882826200014c60201b60201c565b5050565b6200016382826200019460201b62000e791760201c565b6200018f81600160008581526020019081526020016000206200028560201b62000f591790919060201c565b505050565b620001a68282620002bd60201b60201c565b6200028157600160008084815260200190815260200160002060000160008373ffffffffffffffffffffffffffffffffffffffff1673ffffffffffffffffffffffffffffffffffffffff16815260200190815260200160002060006101000a81548160ff021916908315150217905550620002266200012e60201b60201c565b73ffffffffffffffffffffffffffffffffffffffff168173ffffffffffffffffffffffffffffffffffffffff16837f2f8788117e7eff1d82e926ec794901d17c78024a50270940304540a733656f0d60405160405180910390a45b5050565b6000620002b5836000018373ffffffffffffffffffffffffffffffffffffffff1660001b6200032760201b60201c565b905092915050565b600080600084815260200190815260200160002060000160008373ffffffffffffffffffffffffffffffffffffffff1673ffffffffffffffffffffffffffffffffffffffff16815260200190815260200160002060009054906101000a900460ff16905092915050565b60006200033b8383620003a160201b60201c565b620003965782600001829080600181540180825580915050600190039060005260206000200160009091909190915055826000018054905083600101600084815260200190815260200160002081905550600190506200039b565b600090505b92915050565b600080836001016000848152602001908152602001600020541415905092915050565b828054620003d290620005d8565b90600052602060002090601f016020900481019282620003f6576000855562000442565b82601f106200041157805160ff191683800117855562000442565b8280016001018555821562000442579182015b828111156200044157825182559160200191906001019062000424565b5b50905062000451919062000455565b5090565b5b808211156200047057600081600090555060010162000456565b5090565b60006200048b62000485846200056c565b62000543565b905082815260208101848484011115620004aa57620004a9620006a7565b5b620004b7848285620005a2565b509392505050565b600082601f830112620004d757620004d6620006a2565b5b8151620004e984826020860162000474565b91505092915050565b6000602082840312156200050b576200050a620006b1565b5b600082015167ffffffffffffffff8111156200052c576200052b620006ac565b5b6200053a84828501620004bf565b91505092915050565b60006200054f62000562565b90506200055d82826200060e565b919050565b6000604051905090565b600067ffffffffffffffff8211156200058a576200058962000673565b5b6200059582620006b6565b9050602081019050919050565b60005b83811015620005c2578082015181840152602081019050620005a5565b83811115620005d2576000848401525b50505050565b60006002820490506001821680620005f157607f821691505b6020821081141562000608576200060762000644565b5b50919050565b6200061982620006b6565b810181811067ffffffffffffffff821117156200063b576200063a62000673565b5b80604052505050565b7f4e487b7100000000000000000000000000000000000000000000000000000000600052602260045260246000fd5b7f4e487b7100000000000000000000000000000000000000000000000000000000600052604160045260246000fd5b600080fd5b600080fd5b600080fd5b600080fd5b6000601f19601f8301169050919050565b614c7780620006d76000396000f3fe608060405234801561001057600080fd5b50600436106101725760003560e01c8063731133e9116100de578063ca15c87311610097578063e63ab1e911610071578063e63ab1e914610445578063e985e9c514610463578063f242432a14610493578063f5298aca146104af57610172565b8063ca15c873146103db578063d53913931461040b578063d547741f1461042957610172565b8063731133e91461031b5780638456cb59146103375780639010d07c1461034157806391d1485414610371578063a217fddf146103a1578063a22cb465146103bf57610172565b80632f2ff15d116101305780632f2ff15d1461026f57806336568abe1461028b5780633f4ba83a146102a75780634e1273f4146102b15780635c975abb146102e15780636b20c454146102ff57610172565b8062fdd58e1461017757806301ffc9a7146101a75780630e89341c146101d75780631f7fdffa14610207578063248a9ca3146102235780632eb2c2d614610253575b600080fd5b610191600480360381019061018c91906133fe565b6104cb565b60405161019e9190613fb1565b60405180910390f35b6101c160048036038101906101bc9190613639565b610595565b6040516101ce9190613cb9565b60405180910390f35b6101f160048036038101906101ec9190613693565b6105a7565b6040516101fe9190613cef565b60405180910390f35b610221600480360381019061021c9190613303565b61063b565b005b61023d6004803603810190610238919061358c565b6106bd565b60405161024a9190613cd4565b60405180910390f35b61026d60048036038101906102689190613112565b6106dc565b005b610289600480360381019061028491906135b9565b61077d565b005b6102a560048036038101906102a091906135b9565b61079e565b005b6102af610821565b005b6102cb60048036038101906102c69190613514565b61089b565b6040516102d89190613c60565b60405180910390f35b6102e96109b4565b6040516102f69190613cb9565b60405180910390f35b61031960048036038101906103149190613278565b6109cb565b005b61033560048036038101906103309190613491565b610a68565b005b61033f610aea565b005b61035b600480360381019061035691906135f9565b610b64565b6040516103689190613b83565b60405180910390f35b61038b600480360381019061038691906135b9565b610b93565b6040516103989190613cb9565b60405180910390f35b6103a9610bfd565b6040516103b69190613cd4565b60405180910390f35b6103d960048036038101906103d491906133be565b610c04565b005b6103f560048036038101906103f0919061358c565b610c1a565b6040516104029190613fb1565b60405180910390f35b610413610c3e565b6040516104209190613cd4565b60405180910390f35b610443600480360381019061043e91906135b9565b610c62565b005b61044d610c83565b60405161045a9190613cd4565b60405180910390f35b61047d600480360381019061047891906130d2565b610ca7565b60405161048a9190613cb9565b60405180910390f35b6104ad60048036038101906104a891906131e1565b610d3b565b005b6104c960048036038101906104c4919061343e565b610ddc565b005b60008073ffffffffffffffffffffffffffffffffffffffff168373ffffffffffffffffffffffffffffffffffffffff16141561053c576040517f08c379a000000000000000000000000000000000000000000000000000000000815260040161053390613df1565b60405180910390fd5b6002600083815260200190815260200160002060008473ffffffffffffffffffffffffffffffffffffffff1673ffffffffffffffffffffffffffffffffffffffff16815260200190815260200160002054905092915050565b60006105a082610f89565b9050919050565b6060600480546105b6906142ed565b80601f01602080910402602001604051908101604052809291908181526020018280546105e2906142ed565b801561062f5780601f106106045761010080835404028352916020019161062f565b820191906000526020600020905b81548152906001019060200180831161061257829003601f168201915b50505050509050919050565b61066c7f9f2df0fed2c77648de5860a4cc508cd0818c85b8b8a1ab4ceeef8d981c8956a661066761106b565b610b93565b6106ab576040517f08c379a00000000000000000000000000000000000000000000000000000000081526004016106a290613e91565b60405180910390fd5b6106b784848484611073565b50505050565b6000806000838152602001908152602001600020600101549050919050565b6106e461106b565b73ffffffffffffffffffffffffffffffffffffffff168573ffffffffffffffffffffffffffffffffffffffff16148061072a57506107298561072461106b565b610ca7565b5b610769576040517f08c379a000000000000000000000000000000000000000000000000000000000815260040161076090613e51565b60405180910390fd5b61077685858585856112a1565b5050505050565b610786826106bd565b61078f816115c6565b61079983836115da565b505050565b6107a661106b565b73ffffffffffffffffffffffffffffffffffffffff168173ffffffffffffffffffffffffffffffffffffffff1614610813576040517f08c379a000000000000000000000000000000000000000000000000000000000815260040161080a90613f91565b60405180910390fd5b61081d828261160e565b5050565b6108527f65d7a28e3265b37a6474929f336521b332c1681b933f6cb9f3376673440d862a61084d61106b565b610b93565b610891576040517f08c379a000000000000000000000000000000000000000000000000000000000815260040161088890613ed1565b60405180910390fd5b610899611642565b565b606081518351146108e1576040517f08c379a00000000000000000000000000000000000000000000000000000000081526004016108d890613f31565b60405180910390fd5b6000835167ffffffffffffffff8111156108fe576108fd614455565b5b60405190808252806020026020018201604052801561092c5781602001602082028036833780820191505090505b50905060005b84518110156109a95761097985828151811061095157610950614426565b5b602002602001015185838151811061096c5761096b614426565b5b60200260200101516104cb565b82828151811061098c5761098b614426565b5b602002602001018181525050806109a290614350565b9050610932565b508091505092915050565b6000600560009054906101000a900460ff16905090565b6109d361106b565b73ffffffffffffffffffffffffffffffffffffffff168373ffffffffffffffffffffffffffffffffffffffff161480610a195750610a1883610a1361106b565b610ca7565b5b610a58576040517f08c379a0000000000000000000000000000000000000000000000000000000008152600401610a4f90613dd1565b60405180910390fd5b610a638383836116e4565b505050565b610a997f9f2df0fed2c77648de5860a4cc508cd0818c85b8b8a1ab4ceeef8d981c8956a6610a9461106b565b610b93565b610ad8576040517f08c379a0000000000000000000000000000000000000000000000000000000008152600401610acf90613e91565b60405180910390fd5b610ae4848484846119b5565b50505050565b610b1b7f65d7a28e3265b37a6474929f336521b332c1681b933f6cb9f3376673440d862a610b1661106b565b610b93565b610b5a576040517f08c379a0000000000000000000000000000000000000000000000000000000008152600401610b5190613ef1565b60405180910390fd5b610b62611b67565b565b6000610b8b8260016000868152602001908152602001600020611c0a90919063ffffffff16565b905092915050565b600080600084815260200190815260200160002060000160008373ffffffffffffffffffffffffffffffffffffffff1673ffffffffffffffffffffffffffffffffffffffff16815260200190815260200160002060009054906101000a900460ff16905092915050565b6000801b81565b610c16610c0f61106b565b8383611c24565b5050565b6000610c3760016000848152602001908152602001600020611d91565b9050919050565b7f9f2df0fed2c77648de5860a4cc508cd0818c85b8b8a1ab4ceeef8d981c8956a681565b610c6b826106bd565b610c74816115c6565b610c7e838361160e565b505050565b7f65d7a28e3265b37a6474929f336521b332c1681b933f6cb9f3376673440d862a81565b6000600360008473ffffffffffffffffffffffffffffffffffffffff1673ffffffffffffffffffffffffffffffffffffffff16815260200190815260200160002060008373ffffffffffffffffffffffffffffffffffffffff1673ffffffffffffffffffffffffffffffffffffffff16815260200190815260200160002060009054906101000a900460ff16905092915050565b610d4361106b565b73ffffffffffffffffffffffffffffffffffffffff168573ffffffffffffffffffffffffffffffffffffffff161480610d895750610d8885610d8361106b565b610ca7565b5b610dc8576040517f08c379a0000000000000000000000000000000000000000000000000000000008152600401610dbf90613dd1565b60405180910390fd5b610dd58585858585611da6565b5050505050565b610de461106b565b73ffffffffffffffffffffffffffffffffffffffff168373ffffffffffffffffffffffffffffffffffffffff161480610e2a5750610e2983610e2461106b565b610ca7565b5b610e69576040517f08c379a0000000000000000000000000000000000000000000000000000000008152600401610e6090613dd1565b60405180910390fd5b610e74838383612045565b505050565b610e838282610b93565b610f5557600160008084815260200190815260200160002060000160008373ffffffffffffffffffffffffffffffffffffffff1673ffffffffffffffffffffffffffffffffffffffff16815260200190815260200160002060006101000a81548160ff021916908315150217905550610efa61106b565b73ffffffffffffffffffffffffffffffffffffffff168173ffffffffffffffffffffffffffffffffffffffff16837f2f8788117e7eff1d82e926ec794901d17c78024a50270940304540a733656f0d60405160405180910390a45b5050565b6000610f81836000018373ffffffffffffffffffffffffffffffffffffffff1660001b61228e565b905092915050565b60007fd9b67a26000000000000000000000000000000000000000000000000000000007bffffffffffffffffffffffffffffffffffffffffffffffffffffffff1916827bffffffffffffffffffffffffffffffffffffffffffffffffffffffff1916148061105457507f0e89341c000000000000000000000000000000000000000000000000000000007bffffffffffffffffffffffffffffffffffffffffffffffffffffffff1916827bffffffffffffffffffffffffffffffffffffffffffffffffffffffff1916145b806110645750611063826122fe565b5b9050919050565b600033905090565b600073ffffffffffffffffffffffffffffffffffffffff168473ffffffffffffffffffffffffffffffffffffffff1614156110e3576040517f08c379a00000000000000000000000000000000000000000000000000000000081526004016110da90613f71565b60405180910390fd5b8151835114611127576040517f08c379a000000000000000000000000000000000000000000000000000000000815260040161111e90613f51565b60405180910390fd5b600061113161106b565b905061114281600087878787612378565b60005b84518110156111fc5783818151811061116157611160614426565b5b6020026020010151600260008784815181106111805761117f614426565b5b6020026020010151815260200190815260200160002060008873ffffffffffffffffffffffffffffffffffffffff1673ffffffffffffffffffffffffffffffffffffffff16815260200190815260200160002060008282546111e2919061411f565b9250508190555080806111f490614350565b915050611145565b508473ffffffffffffffffffffffffffffffffffffffff16600073ffffffffffffffffffffffffffffffffffffffff168273ffffffffffffffffffffffffffffffffffffffff167f4a39dc06d4c0dbc64b70af90fd698a233a518aa5d07e595d983b8c0526c8f7fb8787604051611274929190613c82565b60405180910390a461128b8160008787878761238e565b61129a81600087878787612396565b5050505050565b81518351146112e5576040517f08c379a00000000000000000000000000000000000000000000000000000000081526004016112dc90613f51565b60405180910390fd5b600073ffffffffffffffffffffffffffffffffffffffff168473ffffffffffffffffffffffffffffffffffffffff161415611355576040517f08c379a000000000000000000000000000000000000000000000000000000000815260040161134c90613e31565b60405180910390fd5b600061135f61106b565b905061136f818787878787612378565b60005b84518110156115235760008582815181106113905761138f614426565b5b6020026020010151905060008583815181106113af576113ae614426565b5b6020026020010151905060006002600084815260200190815260200160002060008b73ffffffffffffffffffffffffffffffffffffffff1673ffffffffffffffffffffffffffffffffffffffff16815260200190815260200160002054905081811015611451576040517f08c379a000000000000000000000000000000000000000000000000000000000815260040161144890613eb1565b60405180910390fd5b8181036002600085815260200190815260200160002060008c73ffffffffffffffffffffffffffffffffffffffff1673ffffffffffffffffffffffffffffffffffffffff16815260200190815260200160002081905550816002600085815260200190815260200160002060008b73ffffffffffffffffffffffffffffffffffffffff1673ffffffffffffffffffffffffffffffffffffffff1681526020019081526020016000206000828254611508919061411f565b925050819055505050508061151c90614350565b9050611372565b508473ffffffffffffffffffffffffffffffffffffffff168673ffffffffffffffffffffffffffffffffffffffff168273ffffffffffffffffffffffffffffffffffffffff167f4a39dc06d4c0dbc64b70af90fd698a233a518aa5d07e595d983b8c0526c8f7fb878760405161159a929190613c82565b60405180910390a46115b081878787878761238e565b6115be818787878787612396565b505050505050565b6115d7816115d261106b565b61257d565b50565b6115e48282610e79565b6116098160016000858152602001908152602001600020610f5990919063ffffffff16565b505050565b611618828261261a565b61163d81600160008581526020019081526020016000206126fb90919063ffffffff16565b505050565b61164a6109b4565b611689576040517f08c379a000000000000000000000000000000000000000000000000000000000815260040161168090613d71565b60405180910390fd5b6000600560006101000a81548160ff0219169083151502179055507f5db9ee0a495bf2e6ff9c91a7834c1ba4fdd244a5e8aa4e537bd38aeae4b073aa6116cd61106b565b6040516116da9190613b83565b60405180910390a1565b600073ffffffffffffffffffffffffffffffffffffffff168373ffffffffffffffffffffffffffffffffffffffff161415611754576040517f08c379a000000000000000000000000000000000000000000000000000000000815260040161174b90613e71565b60405180910390fd5b8051825114611798576040517f08c379a000000000000000000000000000000000000000000000000000000000815260040161178f90613f51565b60405180910390fd5b60006117a261106b565b90506117c281856000868660405180602001604052806000815250612378565b60005b83518110156119115760008482815181106117e3576117e2614426565b5b60200260200101519050600084838151811061180257611801614426565b5b6020026020010151905060006002600084815260200190815260200160002060008973ffffffffffffffffffffffffffffffffffffffff1673ffffffffffffffffffffffffffffffffffffffff168152602001908152602001600020549050818110156118a4576040517f08c379a000000000000000000000000000000000000000000000000000000000815260040161189b90613d91565b60405180910390fd5b8181036002600085815260200190815260200160002060008a73ffffffffffffffffffffffffffffffffffffffff1673ffffffffffffffffffffffffffffffffffffffff16815260200190815260200160002081905550505050808061190990614350565b9150506117c5565b50600073ffffffffffffffffffffffffffffffffffffffff168473ffffffffffffffffffffffffffffffffffffffff168273ffffffffffffffffffffffffffffffffffffffff167f4a39dc06d4c0dbc64b70af90fd698a233a518aa5d07e595d983b8c0526c8f7fb8686604051611989929190613c82565b60405180910390a46119af8185600086866040518060200160405280600081525061238e565b50505050565b600073ffffffffffffffffffffffffffffffffffffffff168473ffffffffffffffffffffffffffffffffffffffff161415611a25576040517f08c379a0000000000000000000000000000000000000000000000000000000008152600401611a1c90613f71565b60405180910390fd5b6000611a2f61106b565b90506000611a3c8561272b565b90506000611a498561272b565b9050611a5a83600089858589612378565b846002600088815260200190815260200160002060008973ffffffffffffffffffffffffffffffffffffffff1673ffffffffffffffffffffffffffffffffffffffff1681526020019081526020016000206000828254611aba919061411f565b925050819055508673ffffffffffffffffffffffffffffffffffffffff16600073ffffffffffffffffffffffffffffffffffffffff168473ffffffffffffffffffffffffffffffffffffffff167fc3d58168c5ae7397731d063d5bbf3d657854427343f4c083240f7aacaa2d0f628989604051611b38929190613fcc565b60405180910390a4611b4f8360008985858961238e565b611b5e836000898989896127a5565b50505050505050565b611b6f6109b4565b15611baf576040517f08c379a0000000000000000000000000000000000000000000000000000000008152600401611ba690613e11565b60405180910390fd5b6001600560006101000a81548160ff0219169083151502179055507f62e78cea01bee320cd4e420270b5ea74000d11b0c9f74754ebdbfc544b05a258611bf361106b565b604051611c009190613b83565b60405180910390a1565b6000611c19836000018361298c565b60001c905092915050565b8173ffffffffffffffffffffffffffffffffffffffff168373ffffffffffffffffffffffffffffffffffffffff161415611c93576040517f08c379a0000000000000000000000000000000000000000000000000000000008152600401611c8a90613f11565b60405180910390fd5b80600360008573ffffffffffffffffffffffffffffffffffffffff1673ffffffffffffffffffffffffffffffffffffffff16815260200190815260200160002060008473ffffffffffffffffffffffffffffffffffffffff1673ffffffffffffffffffffffffffffffffffffffff16815260200190815260200160002060006101000a81548160ff0219169083151502179055508173ffffffffffffffffffffffffffffffffffffffff168373ffffffffffffffffffffffffffffffffffffffff167f17307eab39ab6107e8899845ad3d59bd9653f200f220920489ca2b5937696c3183604051611d849190613cb9565b60405180910390a3505050565b6000611d9f826000016129b7565b9050919050565b600073ffffffffffffffffffffffffffffffffffffffff168473ffffffffffffffffffffffffffffffffffffffff161415611e16576040517f08c379a0000000000000000000000000000000000000000000000000000000008152600401611e0d90613e31565b60405180910390fd5b6000611e2061106b565b90506000611e2d8561272b565b90506000611e3a8561272b565b9050611e4a838989858589612378565b60006002600088815260200190815260200160002060008a73ffffffffffffffffffffffffffffffffffffffff1673ffffffffffffffffffffffffffffffffffffffff16815260200190815260200160002054905085811015611ee2576040517f08c379a0000000000000000000000000000000000000000000000000000000008152600401611ed990613eb1565b60405180910390fd5b8581036002600089815260200190815260200160002060008b73ffffffffffffffffffffffffffffffffffffffff1673ffffffffffffffffffffffffffffffffffffffff16815260200190815260200160002081905550856002600089815260200190815260200160002060008a73ffffffffffffffffffffffffffffffffffffffff1673ffffffffffffffffffffffffffffffffffffffff1681526020019081526020016000206000828254611f99919061411f565b925050819055508773ffffffffffffffffffffffffffffffffffffffff168973ffffffffffffffffffffffffffffffffffffffff168573ffffffffffffffffffffffffffffffffffffffff167fc3d58168c5ae7397731d063d5bbf3d657854427343f4c083240f7aacaa2d0f628a8a604051612016929190613fcc565b60405180910390a461202c848a8a86868a61238e565b61203a848a8a8a8a8a6127a5565b505050505050505050565b600073ffffffffffffffffffffffffffffffffffffffff168373ffffffffffffffffffffffffffffffffffffffff1614156120b5576040517f08c379a00000000000000000000000000000000000000000000000000000000081526004016120ac90613e71565b60405180910390fd5b60006120bf61106b565b905060006120cc8461272b565b905060006120d98461272b565b90506120f983876000858560405180602001604052806000815250612378565b60006002600087815260200190815260200160002060008873ffffffffffffffffffffffffffffffffffffffff1673ffffffffffffffffffffffffffffffffffffffff16815260200190815260200160002054905084811015612191576040517f08c379a000000000000000000000000000000000000000000000000000000000815260040161218890613d91565b60405180910390fd5b8481036002600088815260200190815260200160002060008973ffffffffffffffffffffffffffffffffffffffff1673ffffffffffffffffffffffffffffffffffffffff16815260200190815260200160002081905550600073ffffffffffffffffffffffffffffffffffffffff168773ffffffffffffffffffffffffffffffffffffffff168573ffffffffffffffffffffffffffffffffffffffff167fc3d58168c5ae7397731d063d5bbf3d657854427343f4c083240f7aacaa2d0f62898960405161225f929190613fcc565b60405180910390a46122858488600086866040518060200160405280600081525061238e565b50505050505050565b600061229a83836129c8565b6122f35782600001829080600181540180825580915050600190039060005260206000200160009091909190915055826000018054905083600101600084815260200190815260200160002081905550600190506122f8565b600090505b92915050565b60007f5a05180f000000000000000000000000000000000000000000000000000000007bffffffffffffffffffffffffffffffffffffffffffffffffffffffff1916827bffffffffffffffffffffffffffffffffffffffffffffffffffffffff191614806123715750612370826129eb565b5b9050919050565b612386868686868686612a65565b505050505050565b505050505050565b6123b58473ffffffffffffffffffffffffffffffffffffffff16612ac3565b15612575578373ffffffffffffffffffffffffffffffffffffffff1663bc197c8187878686866040518663ffffffff1660e01b81526004016123fb959493929190613b9e565b602060405180830381600087803b15801561241557600080fd5b505af192505050801561244657506040513d601f19601f820116820180604052508101906124439190613666565b60015b6124ec57612452614484565b806308c379a014156124af5750612467614b38565b8061247257506124b1565b806040517f08c379a00000000000000000000000000000000000000000000000000000000081526004016124a69190613cef565b60405180910390fd5b505b6040517f08c379a00000000000000000000000000000000000000000000000000000000081526004016124e390613d11565b60405180910390fd5b63bc197c8160e01b7bffffffffffffffffffffffffffffffffffffffffffffffffffffffff1916817bffffffffffffffffffffffffffffffffffffffffffffffffffffffff191614612573576040517f08c379a000000000000000000000000000000000000000000000000000000000815260040161256a90613d51565b60405180910390fd5b505b505050505050565b6125878282610b93565b612616576125ac8173ffffffffffffffffffffffffffffffffffffffff166014612ae6565b6125ba8360001c6020612ae6565b6040516020016125cb929190613b49565b6040516020818303038152906040526040517f08c379a000000000000000000000000000000000000000000000000000000000815260040161260d9190613cef565b60405180910390fd5b5050565b6126248282610b93565b156126f757600080600084815260200190815260200160002060000160008373ffffffffffffffffffffffffffffffffffffffff1673ffffffffffffffffffffffffffffffffffffffff16815260200190815260200160002060006101000a81548160ff02191690831515021790555061269c61106b565b73ffffffffffffffffffffffffffffffffffffffff168173ffffffffffffffffffffffffffffffffffffffff16837ff6391f5c32d9c69d2a47ea670b442974b53935d1edc7fd64eb21e047a839171b60405160405180910390a45b5050565b6000612723836000018373ffffffffffffffffffffffffffffffffffffffff1660001b612d22565b905092915050565b60606000600167ffffffffffffffff81111561274a57612749614455565b5b6040519080825280602002602001820160405280156127785781602001602082028036833780820191505090505b50905082816000815181106127905761278f614426565b5b60200260200101818152505080915050919050565b6127c48473ffffffffffffffffffffffffffffffffffffffff16612ac3565b15612984578373ffffffffffffffffffffffffffffffffffffffff1663f23a6e6187878686866040518663ffffffff1660e01b815260040161280a959493929190613c06565b602060405180830381600087803b15801561282457600080fd5b505af192505050801561285557506040513d601f19601f820116820180604052508101906128529190613666565b60015b6128fb57612861614484565b806308c379a014156128be5750612876614b38565b8061288157506128c0565b806040517f08c379a00000000000000000000000000000000000000000000000000000000081526004016128b59190613cef565b60405180910390fd5b505b6040517f08c379a00000000000000000000000000000000000000000000000000000000081526004016128f290613d11565b60405180910390fd5b63f23a6e6160e01b7bffffffffffffffffffffffffffffffffffffffffffffffffffffffff1916817bffffffffffffffffffffffffffffffffffffffffffffffffffffffff191614612982576040517f08c379a000000000000000000000000000000000000000000000000000000000815260040161297990613d51565b60405180910390fd5b505b505050505050565b60008260000182815481106129a4576129a3614426565b5b9060005260206000200154905092915050565b600081600001805490509050919050565b600080836001016000848152602001908152602001600020541415905092915050565b60007f7965db0b000000000000000000000000000000000000000000000000000000007bffffffffffffffffffffffffffffffffffffffffffffffffffffffff1916827bffffffffffffffffffffffffffffffffffffffffffffffffffffffff19161480612a5e5750612a5d82612e36565b5b9050919050565b612a73868686868686612ea0565b612a7b6109b4565b15612abb576040517f08c379a0000000000000000000000000000000000000000000000000000000008152600401612ab290613db1565b60405180910390fd5b505050505050565b6000808273ffffffffffffffffffffffffffffffffffffffff163b119050919050565b606060006002836002612af99190614175565b612b03919061411f565b67ffffffffffffffff811115612b1c57612b1b614455565b5b6040519080825280601f01601f191660200182016040528015612b4e5781602001600182028036833780820191505090505b5090507f300000000000000000000000000000000000000000000000000000000000000081600081518110612b8657612b85614426565b5b60200101907effffffffffffffffffffffffffffffffffffffffffffffffffffffffffffff1916908160001a9053507f780000000000000000000000000000000000000000000000000000000000000081600181518110612bea57612be9614426565b5b60200101907effffffffffffffffffffffffffffffffffffffffffffffffffffffffffffff1916908160001a90535060006001846002612c2a9190614175565b612c34919061411f565b90505b6001811115612cd4577f3031323334353637383961626364656600000000000000000000000000000000600f861660108110612c7657612c75614426565b5b1a60f81b828281518110612c8d57612c8c614426565b5b60200101907effffffffffffffffffffffffffffffffffffffffffffffffffffffffffffff1916908160001a905350600485901c945080612ccd906142c3565b9050612c37565b5060008414612d18576040517f08c379a0000000000000000000000000000000000000000000000000000000008152600401612d0f90613d31565b60405180910390fd5b8091505092915050565b60008083600101600084815260200190815260200160002054905060008114612e2a576000600182612d5491906141cf565b9050600060018660000180549050612d6c91906141cf565b9050818114612ddb576000866000018281548110612d8d57612d8c614426565b5b9060005260206000200154905080876000018481548110612db157612db0614426565b5b90600052602060002001819055508387600101600083815260200190815260200160002081905550505b85600001805480612def57612dee6143f7565b5b600190038181906000526020600020016000905590558560010160008681526020019081526020016000206000905560019350505050612e30565b60009150505b92915050565b60007f01ffc9a7000000000000000000000000000000000000000000000000000000007bffffffffffffffffffffffffffffffffffffffffffffffffffffffff1916827bffffffffffffffffffffffffffffffffffffffffffffffffffffffff1916149050919050565b505050505050565b6000612ebb612eb68461401a565b613ff5565b90508083825260208201905082856020860282011115612ede57612edd6144ab565b5b60005b85811015612f0e5781612ef48882612fca565b845260208401935060208301925050600181019050612ee1565b5050509392505050565b6000612f2b612f2684614046565b613ff5565b90508083825260208201905082856020860282011115612f4e57612f4d6144ab565b5b60005b85811015612f7e5781612f6488826130bd565b845260208401935060208301925050600181019050612f51565b5050509392505050565b6000612f9b612f9684614072565b613ff5565b905082815260208101848484011115612fb757612fb66144b0565b5b612fc2848285614281565b509392505050565b600081359050612fd981614bce565b92915050565b600082601f830112612ff457612ff36144a6565b5b8135613004848260208601612ea8565b91505092915050565b600082601f830112613022576130216144a6565b5b8135613032848260208601612f18565b91505092915050565b60008135905061304a81614be5565b92915050565b60008135905061305f81614bfc565b92915050565b60008135905061307481614c13565b92915050565b60008151905061308981614c13565b92915050565b600082601f8301126130a4576130a36144a6565b5b81356130b4848260208601612f88565b91505092915050565b6000813590506130cc81614c2a565b92915050565b600080604083850312156130e9576130e86144ba565b5b60006130f785828601612fca565b925050602061310885828601612fca565b9150509250929050565b600080600080600060a0868803121561312e5761312d6144ba565b5b600061313c88828901612fca565b955050602061314d88828901612fca565b945050604086013567ffffffffffffffff81111561316e5761316d6144b5565b5b61317a8882890161300d565b935050606086013567ffffffffffffffff81111561319b5761319a6144b5565b5b6131a78882890161300d565b925050608086013567ffffffffffffffff8111156131c8576131c76144b5565b5b6131d48882890161308f565b9150509295509295909350565b600080600080600060a086880312156131fd576131fc6144ba565b5b600061320b88828901612fca565b955050602061321c88828901612fca565b945050604061322d888289016130bd565b935050606061323e888289016130bd565b925050608086013567ffffffffffffffff81111561325f5761325e6144b5565b5b61326b8882890161308f565b9150509295509295909350565b600080600060608486031215613291576132906144ba565b5b600061329f86828701612fca565b935050602084013567ffffffffffffffff8111156132c0576132bf6144b5565b5b6132cc8682870161300d565b925050604084013567ffffffffffffffff8111156132ed576132ec6144b5565b5b6132f98682870161300d565b9150509250925092565b6000806000806080858703121561331d5761331c6144ba565b5b600061332b87828801612fca565b945050602085013567ffffffffffffffff81111561334c5761334b6144b5565b5b6133588782880161300d565b935050604085013567ffffffffffffffff811115613379576133786144b5565b5b6133858782880161300d565b925050606085013567ffffffffffffffff8111156133a6576133a56144b5565b5b6133b28782880161308f565b91505092959194509250565b600080604083850312156133d5576133d46144ba565b5b60006133e385828601612fca565b92505060206133f48582860161303b565b9150509250929050565b60008060408385031215613415576134146144ba565b5b600061342385828601612fca565b9250506020613434858286016130bd565b9150509250929050565b600080600060608486031215613457576134566144ba565b5b600061346586828701612fca565b9350506020613476868287016130bd565b9250506040613487868287016130bd565b9150509250925092565b600080600080608085870312156134ab576134aa6144ba565b5b60006134b987828801612fca565b94505060206134ca878288016130bd565b93505060406134db878288016130bd565b925050606085013567ffffffffffffffff8111156134fc576134fb6144b5565b5b6135088782880161308f565b91505092959194509250565b6000806040838503121561352b5761352a6144ba565b5b600083013567ffffffffffffffff811115613549576135486144b5565b5b61355585828601612fdf565b925050602083013567ffffffffffffffff811115613576576135756144b5565b5b6135828582860161300d565b9150509250929050565b6000602082840312156135a2576135a16144ba565b5b60006135b084828501613050565b91505092915050565b600080604083850312156135d0576135cf6144ba565b5b60006135de85828601613050565b92505060206135ef85828601612fca565b9150509250929050565b600080604083850312156136105761360f6144ba565b5b600061361e85828601613050565b925050602061362f858286016130bd565b9150509250929050565b60006020828403121561364f5761364e6144ba565b5b600061365d84828501613065565b91505092915050565b60006020828403121561367c5761367b6144ba565b5b600061368a8482850161307a565b91505092915050565b6000602082840312156136a9576136a86144ba565b5b60006136b7848285016130bd565b91505092915050565b60006136cc8383613b2b565b60208301905092915050565b6136e181614203565b82525050565b60006136f2826140b3565b6136fc81856140e1565b9350613707836140a3565b8060005b8381101561373857815161371f88826136c0565b975061372a836140d4565b92505060018101905061370b565b5085935050505092915050565b61374e81614215565b82525050565b61375d81614221565b82525050565b600061376e826140be565b61377881856140f2565b9350613788818560208601614290565b613791816144bf565b840191505092915050565b60006137a7826140c9565b6137b18185614103565b93506137c1818560208601614290565b6137ca816144bf565b840191505092915050565b60006137e0826140c9565b6137ea8185614114565b93506137fa818560208601614290565b80840191505092915050565b6000613813603483614103565b915061381e826144dd565b604082019050919050565b6000613836602083614103565b91506138418261452c565b602082019050919050565b6000613859602883614103565b915061386482614555565b604082019050919050565b600061387c601483614103565b9150613887826145a4565b602082019050919050565b600061389f602483614103565b91506138aa826145cd565b604082019050919050565b60006138c2602c83614103565b91506138cd8261461c565b604082019050919050565b60006138e5602983614103565b91506138f08261466b565b604082019050919050565b6000613908602a83614103565b9150613913826146ba565b604082019050919050565b600061392b601083614103565b915061393682614709565b602082019050919050565b600061394e602583614103565b915061395982614732565b604082019050919050565b6000613971603283614103565b915061397c82614781565b604082019050919050565b6000613994602383614103565b915061399f826147d0565b604082019050919050565b60006139b7603883614103565b91506139c28261481f565b604082019050919050565b60006139da602a83614103565b91506139e58261486e565b604082019050919050565b60006139fd603b83614103565b9150613a08826148bd565b604082019050919050565b6000613a20603983614103565b9150613a2b8261490c565b604082019050919050565b6000613a43601783614114565b9150613a4e8261495b565b601782019050919050565b6000613a66602983614103565b9150613a7182614984565b604082019050919050565b6000613a89602983614103565b9150613a94826149d3565b604082019050919050565b6000613aac602883614103565b9150613ab782614a22565b604082019050919050565b6000613acf602183614103565b9150613ada82614a71565b604082019050919050565b6000613af2601183614114565b9150613afd82614ac0565b601182019050919050565b6000613b15602f83614103565b9150613b2082614ae9565b604082019050919050565b613b3481614277565b82525050565b613b4381614277565b82525050565b6000613b5482613a36565b9150613b6082856137d5565b9150613b6b82613ae5565b9150613b7782846137d5565b91508190509392505050565b6000602082019050613b9860008301846136d8565b92915050565b600060a082019050613bb360008301886136d8565b613bc060208301876136d8565b8181036040830152613bd281866136e7565b90508181036060830152613be681856136e7565b90508181036080830152613bfa8184613763565b90509695505050505050565b600060a082019050613c1b60008301886136d8565b613c2860208301876136d8565b613c356040830186613b3a565b613c426060830185613b3a565b8181036080830152613c548184613763565b90509695505050505050565b60006020820190508181036000830152613c7a81846136e7565b905092915050565b60006040820190508181036000830152613c9c81856136e7565b90508181036020830152613cb081846136e7565b90509392505050565b6000602082019050613cce6000830184613745565b92915050565b6000602082019050613ce96000830184613754565b92915050565b60006020820190508181036000830152613d09818461379c565b905092915050565b60006020820190508181036000830152613d2a81613806565b9050919050565b60006020820190508181036000830152613d4a81613829565b9050919050565b60006020820190508181036000830152613d6a8161384c565b9050919050565b60006020820190508181036000830152613d8a8161386f565b9050919050565b60006020820190508181036000830152613daa81613892565b9050919050565b60006020820190508181036000830152613dca816138b5565b9050919050565b60006020820190508181036000830152613dea816138d8565b9050919050565b60006020820190508181036000830152613e0a816138fb565b9050919050565b60006020820190508181036000830152613e2a8161391e565b9050919050565b60006020820190508181036000830152613e4a81613941565b9050919050565b60006020820190508181036000830152613e6a81613964565b9050919050565b60006020820190508181036000830152613e8a81613987565b9050919050565b60006020820190508181036000830152613eaa816139aa565b9050919050565b60006020820190508181036000830152613eca816139cd565b9050919050565b60006020820190508181036000830152613eea816139f0565b9050919050565b60006020820190508181036000830152613f0a81613a13565b9050919050565b60006020820190508181036000830152613f2a81613a59565b9050919050565b60006020820190508181036000830152613f4a81613a7c565b9050919050565b60006020820190508181036000830152613f6a81613a9f565b9050919050565b60006020820190508181036000830152613f8a81613ac2565b9050919050565b60006020820190508181036000830152613faa81613b08565b9050919050565b6000602082019050613fc66000830184613b3a565b92915050565b6000604082019050613fe16000830185613b3a565b613fee6020830184613b3a565b9392505050565b6000613fff614010565b905061400b828261431f565b919050565b6000604051905090565b600067ffffffffffffffff82111561403557614034614455565b5b602082029050602081019050919050565b600067ffffffffffffffff82111561406157614060614455565b5b602082029050602081019050919050565b600067ffffffffffffffff82111561408d5761408c614455565b5b614096826144bf565b9050602081019050919050565b6000819050602082019050919050565b600081519050919050565b600081519050919050565b600081519050919050565b6000602082019050919050565b600082825260208201905092915050565b600082825260208201905092915050565b600082825260208201905092915050565b600081905092915050565b600061412a82614277565b915061413583614277565b9250827fffffffffffffffffffffffffffffffffffffffffffffffffffffffffffffffff0382111561416a57614169614399565b5b828201905092915050565b600061418082614277565b915061418b83614277565b9250817fffffffffffffffffffffffffffffffffffffffffffffffffffffffffffffffff04831182151516156141c4576141c3614399565b5b828202905092915050565b60006141da82614277565b91506141e583614277565b9250828210156141f8576141f7614399565b5b828203905092915050565b600061420e82614257565b9050919050565b60008115159050919050565b6000819050919050565b60007fffffffff0000000000000000000000000000000000000000000000000000000082169050919050565b600073ffffffffffffffffffffffffffffffffffffffff82169050919050565b6000819050919050565b82818337600083830152505050565b60005b838110156142ae578082015181840152602081019050614293565b838111156142bd576000848401525b50505050565b60006142ce82614277565b915060008214156142e2576142e1614399565b5b600182039050919050565b6000600282049050600182168061430557607f821691505b60208210811415614319576143186143c8565b5b50919050565b614328826144bf565b810181811067ffffffffffffffff8211171561434757614346614455565b5b80604052505050565b600061435b82614277565b91507fffffffffffffffffffffffffffffffffffffffffffffffffffffffffffffffff82141561438e5761438d614399565b5b600182019050919050565b7f4e487b7100000000000000000000000000000000000000000000000000000000600052601160045260246000fd5b7f4e487b7100000000000000000000000000000000000000000000000000000000600052602260045260246000fd5b7f4e487b7100000000000000000000000000000000000000000000000000000000600052603160045260246000fd5b7f4e487b7100000000000000000000000000000000000000000000000000000000600052603260045260246000fd5b7f4e487b7100000000000000000000000000000000000000000000000000000000600052604160045260246000fd5b600060033d11156144a35760046000803e6144a06000516144d0565b90505b90565b600080fd5b600080fd5b600080fd5b600080fd5b600080fd5b6000601f19601f8301169050919050565b60008160e01c9050919050565b7f455243313135353a207472616e7366657220746f206e6f6e204552433131353560008201527f526563656976657220696d706c656d656e746572000000000000000000000000602082015250565b7f537472696e67733a20686578206c656e67746820696e73756666696369656e74600082015250565b7f455243313135353a204552433131353552656365697665722072656a6563746560008201527f6420746f6b656e73000000000000000000000000000000000000000000000000602082015250565b7f5061757361626c653a206e6f7420706175736564000000000000000000000000600082015250565b7f455243313135353a206275726e20616d6f756e7420657863656564732062616c60008201527f616e636500000000000000000000000000000000000000000000000000000000602082015250565b7f455243313135355061757361626c653a20746f6b656e207472616e736665722060008201527f7768696c65207061757365640000000000000000000000000000000000000000602082015250565b7f455243313135353a2063616c6c6572206973206e6f74206f776e6572206e6f7260008201527f20617070726f7665640000000000000000000000000000000000000000000000602082015250565b7f455243313135353a2061646472657373207a65726f206973206e6f742061207660008201527f616c6964206f776e657200000000000000000000000000000000000000000000602082015250565b7f5061757361626c653a2070617573656400000000000000000000000000000000600082015250565b7f455243313135353a207472616e7366657220746f20746865207a65726f20616460008201527f6472657373000000000000000000000000000000000000000000000000000000602082015250565b7f455243313135353a207472616e736665722063616c6c6572206973206e6f742060008201527f6f776e6572206e6f7220617070726f7665640000000000000000000000000000602082015250565b7f455243313135353a206275726e2066726f6d20746865207a65726f206164647260008201527f6573730000000000000000000000000000000000000000000000000000000000602082015250565b7f455243313135355072657365744d696e7465725061757365723a206d7573742060008201527f68617665206d696e74657220726f6c6520746f206d696e740000000000000000602082015250565b7f455243313135353a20696e73756666696369656e742062616c616e636520666f60008201527f72207472616e7366657200000000000000000000000000000000000000000000602082015250565b7f455243313135355072657365744d696e7465725061757365723a206d7573742060008201527f686176652070617573657220726f6c6520746f20756e70617573650000000000602082015250565b7f455243313135355072657365744d696e7465725061757365723a206d7573742060008201527f686176652070617573657220726f6c6520746f20706175736500000000000000602082015250565b7f416363657373436f6e74726f6c3a206163636f756e7420000000000000000000600082015250565b7f455243313135353a2073657474696e6720617070726f76616c2073746174757360008201527f20666f722073656c660000000000000000000000000000000000000000000000602082015250565b7f455243313135353a206163636f756e747320616e6420696473206c656e67746860008201527f206d69736d617463680000000000000000000000000000000000000000000000602082015250565b7f455243313135353a2069647320616e6420616d6f756e7473206c656e6774682060008201527f6d69736d61746368000000000000000000000000000000000000000000000000602082015250565b7f455243313135353a206d696e7420746f20746865207a65726f2061646472657360008201527f7300000000000000000000000000000000000000000000000000000000000000602082015250565b7f206973206d697373696e6720726f6c6520000000000000000000000000000000600082015250565b7f416363657373436f6e74726f6c3a2063616e206f6e6c792072656e6f756e636560008201527f20726f6c657320666f722073656c660000000000000000000000000000000000602082015250565b600060443d1015614b4857614bcb565b614b50614010565b60043d036004823e80513d602482011167ffffffffffffffff82111715614b78575050614bcb565b808201805167ffffffffffffffff811115614b965750505050614bcb565b80602083010160043d038501811115614bb3575050505050614bcb565b614bc28260200185018661431f565b82955050505050505b90565b614bd781614203565b8114614be257600080fd5b50565b614bee81614215565b8114614bf957600080fd5b50565b614c0581614221565b8114614c1057600080fd5b50565b614c1c8161422b565b8114614c2757600080fd5b50565b614c3381614277565b8114614c3e57600080fd5b5056fea2646970667358221220a3da69d727a35ce382e1f54fa0f6be31170e5f023353c67a5ceacd071eb66f3964736f6c63430008070033",
  "immutableReferences": {},
  "source": "// SPDX-License-Identifier: MIT\n// OpenZeppelin Contracts (last updated v4.5.0) (token/ERC1155/presets/ERC1155PresetMinterPauser.sol)\n\npragma solidity ^0.8.0;\n\nimport \"../ERC1155.sol\";\nimport \"../extensions/ERC1155Burnable.sol\";\nimport \"../extensions/ERC1155Pausable.sol\";\nimport \"../../../access/AccessControlEnumerable.sol\";\nimport \"../../../utils/Context.sol\";\n\n/**\n * @dev {ERC1155} token, including:\n *\n *  - ability for holders to burn (destroy) their tokens\n *  - a minter role that allows for token minting (creation)\n *  - a pauser role that allows to stop all token transfers\n *\n * This contract uses {AccessControl} to lock permissioned functions using the\n * different roles - head to its documentation for details.\n *\n * The account that deploys the contract will be granted the minter and pauser\n * roles, as well as the default admin role, which will let it grant both minter\n * and pauser roles to other accounts.\n *\n * _Deprecated in favor of https://wizard.openzeppelin.com/[Contracts Wizard]._\n */\ncontract ERC1155PresetMinterPauser is Context, AccessControlEnumerable, ERC1155Burnable, ERC1155Pausable {\n    bytes32 public constant MINTER_ROLE = keccak256(\"MINTER_ROLE\");\n    bytes32 public constant PAUSER_ROLE = keccak256(\"PAUSER_ROLE\");\n\n    /**\n     * @dev Grants `DEFAULT_ADMIN_ROLE`, `MINTER_ROLE`, and `PAUSER_ROLE` to the account that\n     * deploys the contract.\n     */\n    constructor(string memory uri) ERC1155(uri) {\n        _setupRole(DEFAULT_ADMIN_ROLE, _msgSender());\n\n        _setupRole(MINTER_ROLE, _msgSender());\n        _setupRole(PAUSER_ROLE, _msgSender());\n    }\n\n    /**\n     * @dev Creates `amount` new tokens for `to`, of token type `id`.\n     *\n     * See {ERC1155-_mint}.\n     *\n     * Requirements:\n     *\n     * - the caller must have the `MINTER_ROLE`.\n     */\n    function mint(\n        address to,\n        uint256 id,\n        uint256 amount,\n        bytes memory data\n    ) public virtual {\n        require(hasRole(MINTER_ROLE, _msgSender()), \"ERC1155PresetMinterPauser: must have minter role to mint\");\n\n        _mint(to, id, amount, data);\n    }\n\n    /**\n     * @dev xref:ROOT:erc1155.adoc#batch-operations[Batched] variant of {mint}.\n     */\n    function mintBatch(\n        address to,\n        uint256[] memory ids,\n        uint256[] memory amounts,\n        bytes memory data\n    ) public virtual {\n        require(hasRole(MINTER_ROLE, _msgSender()), \"ERC1155PresetMinterPauser: must have minter role to mint\");\n\n        _mintBatch(to, ids, amounts, data);\n    }\n\n    /**\n     * @dev Pauses all token transfers.\n     *\n     * See {ERC1155Pausable} and {Pausable-_pause}.\n     *\n     * Requirements:\n     *\n     * - the caller must have the `PAUSER_ROLE`.\n     */\n    function pause() public virtual {\n        require(hasRole(PAUSER_ROLE, _msgSender()), \"ERC1155PresetMinterPauser: must have pauser role to pause\");\n        _pause();\n    }\n\n    /**\n     * @dev Unpauses all token transfers.\n     *\n     * See {ERC1155Pausable} and {Pausable-_unpause}.\n     *\n     * Requirements:\n     *\n     * - the caller must have the `PAUSER_ROLE`.\n     */\n    function unpause() public virtual {\n        require(hasRole(PAUSER_ROLE, _msgSender()), \"ERC1155PresetMinterPauser: must have pauser role to unpause\");\n        _unpause();\n    }\n\n    /**\n     * @dev See {IERC165-supportsInterface}.\n     */\n    function supportsInterface(bytes4 interfaceId)\n        public\n        view\n        virtual\n        override(AccessControlEnumerable, ERC1155)\n        returns (bool)\n    {\n        return super.supportsInterface(interfaceId);\n    }\n\n    function _beforeTokenTransfer(\n        address operator,\n        address from,\n        address to,\n        uint256[] memory ids,\n        uint256[] memory amounts,\n        bytes memory data\n    ) internal virtual override(ERC1155, ERC1155Pausable) {\n        super._beforeTokenTransfer(operator, from, to, ids, amounts, data);\n    }\n}\n",
  "sourcePath": "/Users/vivekreddy/Documents/Spring2022/Blockchain/Code/BI_Final/BI-contract/contracts/token/ERC1155/presets/ERC1155PresetMinterPauser.sol",
  "compiler": {
    "name": "solc",
    "version": "0.8.7+commit.e28d00a7.Emscripten.clang"
  },
  "schemaVersion": "3.4.7",
  "updatedAt": "2022-05-05T20:32:07.638Z",
  "devdoc": {
    "details": "{ERC1155} token, including:  - ability for holders to burn (destroy) their tokens  - a minter role that allows for token minting (creation)  - a pauser role that allows to stop all token transfers This contract uses {AccessControl} to lock permissioned functions using the different roles - head to its documentation for details. The account that deploys the contract will be granted the minter and pauser roles, as well as the default admin role, which will let it grant both minter and pauser roles to other accounts. _Deprecated in favor of https://wizard.openzeppelin.com/[Contracts Wizard]._",
    "kind": "dev",
    "methods": {
      "balanceOf(address,uint256)": {
        "details": "See {IERC1155-balanceOf}. Requirements: - `account` cannot be the zero address."
      },
      "balanceOfBatch(address[],uint256[])": {
        "details": "See {IERC1155-balanceOfBatch}. Requirements: - `accounts` and `ids` must have the same length."
      },
      "constructor": {
        "details": "Grants `DEFAULT_ADMIN_ROLE`, `MINTER_ROLE`, and `PAUSER_ROLE` to the account that deploys the contract."
      },
      "getRoleAdmin(bytes32)": {
        "details": "Returns the admin role that controls `role`. See {grantRole} and {revokeRole}. To change a role's admin, use {_setRoleAdmin}."
      },
      "getRoleMember(bytes32,uint256)": {
        "details": "Returns one of the accounts that have `role`. `index` must be a value between 0 and {getRoleMemberCount}, non-inclusive. Role bearers are not sorted in any particular way, and their ordering may change at any point. WARNING: When using {getRoleMember} and {getRoleMemberCount}, make sure you perform all queries on the same block. See the following https://forum.openzeppelin.com/t/iterating-over-elements-on-enumerableset-in-openzeppelin-contracts/2296[forum post] for more information."
      },
      "getRoleMemberCount(bytes32)": {
        "details": "Returns the number of accounts that have `role`. Can be used together with {getRoleMember} to enumerate all bearers of a role."
      },
      "grantRole(bytes32,address)": {
        "details": "Grants `role` to `account`. If `account` had not been already granted `role`, emits a {RoleGranted} event. Requirements: - the caller must have ``role``'s admin role."
      },
      "hasRole(bytes32,address)": {
        "details": "Returns `true` if `account` has been granted `role`."
      },
      "isApprovedForAll(address,address)": {
        "details": "See {IERC1155-isApprovedForAll}."
      },
      "mint(address,uint256,uint256,bytes)": {
        "details": "Creates `amount` new tokens for `to`, of token type `id`. See {ERC1155-_mint}. Requirements: - the caller must have the `MINTER_ROLE`."
      },
      "mintBatch(address,uint256[],uint256[],bytes)": {
        "details": "xref:ROOT:erc1155.adoc#batch-operations[Batched] variant of {mint}."
      },
      "pause()": {
        "details": "Pauses all token transfers. See {ERC1155Pausable} and {Pausable-_pause}. Requirements: - the caller must have the `PAUSER_ROLE`."
      },
      "paused()": {
        "details": "Returns true if the contract is paused, and false otherwise."
      },
      "renounceRole(bytes32,address)": {
        "details": "Revokes `role` from the calling account. Roles are often managed via {grantRole} and {revokeRole}: this function's purpose is to provide a mechanism for accounts to lose their privileges if they are compromised (such as when a trusted device is misplaced). If the calling account had been revoked `role`, emits a {RoleRevoked} event. Requirements: - the caller must be `account`."
      },
      "revokeRole(bytes32,address)": {
        "details": "Revokes `role` from `account`. If `account` had been granted `role`, emits a {RoleRevoked} event. Requirements: - the caller must have ``role``'s admin role."
      },
      "safeBatchTransferFrom(address,address,uint256[],uint256[],bytes)": {
        "details": "See {IERC1155-safeBatchTransferFrom}."
      },
      "safeTransferFrom(address,address,uint256,uint256,bytes)": {
        "details": "See {IERC1155-safeTransferFrom}."
      },
      "setApprovalForAll(address,bool)": {
        "details": "See {IERC1155-setApprovalForAll}."
      },
      "supportsInterface(bytes4)": {
        "details": "See {IERC165-supportsInterface}."
      },
      "unpause()": {
        "details": "Unpauses all token transfers. See {ERC1155Pausable} and {Pausable-_unpause}. Requirements: - the caller must have the `PAUSER_ROLE`."
      },
      "uri(uint256)": {
        "details": "See {IERC1155MetadataURI-uri}. This implementation returns the same URI for *all* token types. It relies on the token type ID substitution mechanism https://eips.ethereum.org/EIPS/eip-1155#metadata[defined in the EIP]. Clients calling this function must replace the `\\{id\\}` substring with the actual token type ID."
      }
    },
    "version": 1
  },
  "userdoc": {
    "kind": "user",
    "methods": {},
    "version": 1
  }
}