{
  "contractName": "ERC1155Holder",
  "abi": [
    {
      "inputs": [
        {
          "internalType": "bytes4",
          "name": "interfaceId",
          "type": "bytes4"
        }
      ],
      "name": "supportsInterface",
      "outputs": [
        {
          "internalType": "bool",
          "name": "",
          "type": "bool"
        }
      ],
      "stateMutability": "view",
      "type": "function"
    },
    {
      "inputs": [
        {
          "internalType": "address",
          "name": "",
          "type": "address"
        },
        {
          "internalType": "address",
          "name": "",
          "type": "address"
        },
        {
          "internalType": "uint256",
          "name": "",
          "type": "uint256"
        },
        {
          "internalType": "uint256",
          "name": "",
          "type": "uint256"
        },
        {
          "internalType": "bytes",
          "name": "",
          "type": "bytes"
        }
      ],
      "name": "onERC1155Received",
      "outputs": [
        {
          "internalType": "bytes4",
          "name": "",
          "type": "bytes4"
        }
      ],
      "stateMutability": "nonpayable",
      "type": "function"
    },
    {
      "inputs": [
        {
          "internalType": "address",
          "name": "",
          "type": "address"
        },
        {
          "internalType": "address",
          "name": "",
          "type": "address"
        },
        {
          "internalType": "uint256[]",
          "name": "",
          "type": "uint256[]"
        },
        {
          "internalType": "uint256[]",
          "name": "",
          "type": "uint256[]"
        },
        {
          "internalType": "bytes",
          "name": "",
          "type": "bytes"
        }
      ],
      "name": "onERC1155BatchReceived",
      "outputs": [
        {
          "internalType": "bytes4",
          "name": "",
          "type": "bytes4"
        }
      ],
      "stateMutability": "nonpayable",
      "type": "function"
    }
  ],
  "bytecode": "0x608060405234801561001057600080fd5b50610722806100206000396000f3fe608060405234801561001057600080fd5b50600436106100415760003560e01c806301ffc9a714610046578063bc197c8114610076578063f23a6e61146100a6575b600080fd5b610060600480360381019061005b9190610497565b6100d6565b60405161006d91906104e2565b60405180910390f35b610090600480360381019061008b9190610331565b610150565b60405161009d91906104fd565b60405180910390f35b6100c060048036038101906100bb9190610400565b610165565b6040516100cd91906104fd565b60405180910390f35b60007f4e2312e0000000000000000000000000000000000000000000000000000000007bffffffffffffffffffffffffffffffffffffffffffffffffffffffff1916827bffffffffffffffffffffffffffffffffffffffffffffffffffffffff1916148061014957506101488261017a565b5b9050919050565b600063bc197c8160e01b905095945050505050565b600063f23a6e6160e01b905095945050505050565b60007f01ffc9a7000000000000000000000000000000000000000000000000000000007bffffffffffffffffffffffffffffffffffffffffffffffffffffffff1916827bffffffffffffffffffffffffffffffffffffffffffffffffffffffff1916149050919050565b60006101f76101f28461053d565b610518565b9050808382526020820190508285602086028201111561021a57610219610682565b5b60005b8581101561024a5781610230888261031c565b84526020840193506020830192505060018101905061021d565b5050509392505050565b600061026761026284610569565b610518565b90508281526020810184848401111561028357610282610687565b5b61028e84828561060e565b509392505050565b6000813590506102a5816106a7565b92915050565b600082601f8301126102c0576102bf61067d565b5b81356102d08482602086016101e4565b91505092915050565b6000813590506102e8816106be565b92915050565b600082601f8301126103035761030261067d565b5b8135610313848260208601610254565b91505092915050565b60008135905061032b816106d5565b92915050565b600080600080600060a0868803121561034d5761034c610691565b5b600061035b88828901610296565b955050602061036c88828901610296565b945050604086013567ffffffffffffffff81111561038d5761038c61068c565b5b610399888289016102ab565b935050606086013567ffffffffffffffff8111156103ba576103b961068c565b5b6103c6888289016102ab565b925050608086013567ffffffffffffffff8111156103e7576103e661068c565b5b6103f3888289016102ee565b9150509295509295909350565b600080600080600060a0868803121561041c5761041b610691565b5b600061042a88828901610296565b955050602061043b88828901610296565b945050604061044c8882890161031c565b935050606061045d8882890161031c565b925050608086013567ffffffffffffffff81111561047e5761047d61068c565b5b61048a888289016102ee565b9150509295509295909350565b6000602082840312156104ad576104ac610691565b5b60006104bb848285016102d9565b91505092915050565b6104cd816105ac565b82525050565b6104dc816105b8565b82525050565b60006020820190506104f760008301846104c4565b92915050565b600060208201905061051260008301846104d3565b92915050565b6000610522610533565b905061052e828261061d565b919050565b6000604051905090565b600067ffffffffffffffff8211156105585761055761064e565b5b602082029050602081019050919050565b600067ffffffffffffffff8211156105845761058361064e565b5b61058d82610696565b9050602081019050919050565b60006105a5826105e4565b9050919050565b60008115159050919050565b60007fffffffff0000000000000000000000000000000000000000000000000000000082169050919050565b600073ffffffffffffffffffffffffffffffffffffffff82169050919050565b6000819050919050565b82818337600083830152505050565b61062682610696565b810181811067ffffffffffffffff821117156106455761064461064e565b5b80604052505050565b7f4e487b7100000000000000000000000000000000000000000000000000000000600052604160045260246000fd5b600080fd5b600080fd5b600080fd5b600080fd5b600080fd5b6000601f19601f8301169050919050565b6106b08161059a565b81146106bb57600080fd5b50565b6106c7816105b8565b81146106d257600080fd5b50565b6106de81610604565b81146106e957600080fd5b5056fea2646970667358221220e249248d5cbc482e071d773ef7546e6d444573ac1ae295921530fa77f57ba01c64736f6c63430008070033",
  "immutableReferences": {},
  "source": "// SPDX-License-Identifier: MIT\r\n// OpenZeppelin Contracts (last updated v4.5.0) (token/ERC1155/utils/ERC1155Holder.sol)\r\n\r\npragma solidity ^0.8.0;\r\n\r\nimport \"./ERC1155Receiver.sol\";\r\n\r\n/**\r\n * Simple implementation of `ERC1155Receiver` that will allow a contract to hold ERC1155 tokens.\r\n *\r\n * IMPORTANT: When inheriting this contract, you must include a way to use the received tokens, otherwise they will be\r\n * stuck.\r\n *\r\n * @dev _Available since v3.1._\r\n */\r\ncontract ERC1155Holder is ERC1155Receiver {\r\n    function onERC1155Received(\r\n        address,\r\n        address,\r\n        uint256,\r\n        uint256,\r\n        bytes memory\r\n    ) public virtual override returns (bytes4) {\r\n        return this.onERC1155Received.selector;\r\n    }\r\n\r\n    function onERC1155BatchReceived(\r\n        address,\r\n        address,\r\n        uint256[] memory,\r\n        uint256[] memory,\r\n        bytes memory\r\n    ) public virtual override returns (bytes4) {\r\n        return this.onERC1155BatchReceived.selector;\r\n    }\r\n}\r\n",
  "sourcePath": "C:\\Kshitij\\UBSem2\\CSE 526 - Blockchain\\Project\\Phase3\\MarketPlaceBlockchain\\BI-contract\\contracts\\token\\ERC1155\\utils\\ERC1155Holder.sol",
  "compiler": {
    "name": "solc",
    "version": "0.8.7+commit.e28d00a7.Emscripten.clang"
  },
  "schemaVersion": "3.4.7",
  "updatedAt": "2022-05-08T19:09:20.750Z",
  "devdoc": {
    "details": "_Available since v3.1._",
    "kind": "dev",
    "methods": {
      "supportsInterface(bytes4)": {
        "details": "See {IERC165-supportsInterface}."
      }
    },
    "version": 1
  },
  "userdoc": {
    "kind": "user",
    "methods": {},
    "notice": "Simple implementation of `ERC1155Receiver` that will allow a contract to hold ERC1155 tokens. IMPORTANT: When inheriting this contract, you must include a way to use the received tokens, otherwise they will be stuck.",
    "version": 1
  }
}