{
  "contractName": "LibArbitrumL2",
  "abi": [
    {
      "inputs": [],
      "name": "ARBSYS",
      "outputs": [
        {
          "internalType": "address",
          "name": "",
          "type": "address"
        }
      ],
      "stateMutability": "view",
      "type": "function"
    }
  ],
  "bytecode": "0x60e3610052600b82828239805160001a607314610045577f4e487b7100000000000000000000000000000000000000000000000000000000600052600060045260246000fd5b30600052607381538281f3fe730000000000000000000000000000000000000000301460806040526004361060335760003560e01c8063bf0a12cf146038575b600080fd5b603e6052565b604051604991906064565b60405180910390f35b606481565b605e81607d565b82525050565b6000602082019050607760008301846057565b92915050565b6000608682608d565b9050919050565b600073ffffffffffffffffffffffffffffffffffffffff8216905091905056fea2646970667358221220adf5aed16e58adda284e9897bc87f55fcf5c9b2c478513f9c9a476e378eaa78764736f6c63430008070033",
  "immutableReferences": {},
  "source": "// SPDX-License-Identifier: MIT\n// OpenZeppelin Contracts (last updated v4.6.0) (crosschain/arbitrum/LibArbitrumL2.sol)\n\npragma solidity ^0.8.4;\n\nimport {IArbSys as ArbitrumL2_Bridge} from \"../../vendor/arbitrum/IArbSys.sol\";\nimport \"../errors.sol\";\n\n/**\n * @dev Primitives for cross-chain aware contracts for\n * https://arbitrum.io/[Arbitrum].\n *\n * This version should only be used on L2 to process cross-chain messages\n * originating from L1. For the other side, use {LibArbitrumL1}.\n */\nlibrary LibArbitrumL2 {\n    /**\n     * @dev Returns whether the current function call is the result of a\n     * cross-chain message relayed by `arbsys`.\n     */\n    address public constant ARBSYS = 0x0000000000000000000000000000000000000064;\n\n    function isCrossChain(address arbsys) internal view returns (bool) {\n        return ArbitrumL2_Bridge(arbsys).isTopLevelCall();\n    }\n\n    /**\n     * @dev Returns the address of the sender that triggered the current\n     * cross-chain message through `arbsys`.\n     *\n     * NOTE: {isCrossChain} should be checked before trying to recover the\n     * sender, as it will revert with `NotCrossChainCall` if the current\n     * function call is not the result of a cross-chain message.\n     */\n    function crossChainSender(address arbsys) internal view returns (address) {\n        if (!isCrossChain(arbsys)) revert NotCrossChainCall();\n\n        return\n            ArbitrumL2_Bridge(arbsys).wasMyCallersAddressAliased()\n                ? ArbitrumL2_Bridge(arbsys).myCallersAddressWithoutAliasing()\n                : msg.sender;\n    }\n}\n",
  "sourcePath": "/Users/vivekreddy/Documents/Spring2022/Blockchain/Code/BI_Final/BI-contract/contracts/crosschain/arbitrum/LibArbitrumL2.sol",
  "compiler": {
    "name": "solc",
    "version": "0.8.7+commit.e28d00a7.Emscripten.clang"
  },
  "schemaVersion": "3.4.7",
  "updatedAt": "2022-05-09T01:16:37.294Z",
  "devdoc": {
    "details": "Primitives for cross-chain aware contracts for https://arbitrum.io/[Arbitrum]. This version should only be used on L2 to process cross-chain messages originating from L1. For the other side, use {LibArbitrumL1}.",
    "kind": "dev",
    "methods": {},
    "stateVariables": {
      "ARBSYS": {
        "details": "Returns whether the current function call is the result of a cross-chain message relayed by `arbsys`."
      }
    },
    "version": 1
  },
  "userdoc": {
    "kind": "user",
    "methods": {},
    "version": 1
  }
}