{
  "contractName": "LibArbitrumL2",
  "abi": [
    {
      "inputs": [],
      "name": "ARBSYS",
      "outputs": [
        {
          "internalType": "address",
          "name": "",
          "type": "address"
        }
      ],
      "stateMutability": "view",
      "type": "function"
    }
  ],
  "bytecode": "0x60e3610052600b82828239805160001a607314610045577f4e487b7100000000000000000000000000000000000000000000000000000000600052600060045260246000fd5b30600052607381538281f3fe730000000000000000000000000000000000000000301460806040526004361060335760003560e01c8063bf0a12cf146038575b600080fd5b603e6052565b604051604991906064565b60405180910390f35b606481565b605e81607d565b82525050565b6000602082019050607760008301846057565b92915050565b6000608682608d565b9050919050565b600073ffffffffffffffffffffffffffffffffffffffff8216905091905056fea26469706673582212205368f719938a220242a886e4a1971711f05ac57080b37b5a76d7bf675994a8c164736f6c63430008070033",
  "immutableReferences": {},
  "source": "// SPDX-License-Identifier: MIT\r\n// OpenZeppelin Contracts (last updated v4.6.0) (crosschain/arbitrum/LibArbitrumL2.sol)\r\n\r\npragma solidity ^0.8.4;\r\n\r\nimport {IArbSys as ArbitrumL2_Bridge} from \"../../vendor/arbitrum/IArbSys.sol\";\r\nimport \"../errors.sol\";\r\n\r\n/**\r\n * @dev Primitives for cross-chain aware contracts for\r\n * https://arbitrum.io/[Arbitrum].\r\n *\r\n * This version should only be used on L2 to process cross-chain messages\r\n * originating from L1. For the other side, use {LibArbitrumL1}.\r\n */\r\nlibrary LibArbitrumL2 {\r\n    /**\r\n     * @dev Returns whether the current function call is the result of a\r\n     * cross-chain message relayed by `arbsys`.\r\n     */\r\n    address public constant ARBSYS = 0x0000000000000000000000000000000000000064;\r\n\r\n    function isCrossChain(address arbsys) internal view returns (bool) {\r\n        return ArbitrumL2_Bridge(arbsys).isTopLevelCall();\r\n    }\r\n\r\n    /**\r\n     * @dev Returns the address of the sender that triggered the current\r\n     * cross-chain message through `arbsys`.\r\n     *\r\n     * NOTE: {isCrossChain} should be checked before trying to recover the\r\n     * sender, as it will revert with `NotCrossChainCall` if the current\r\n     * function call is not the result of a cross-chain message.\r\n     */\r\n    function crossChainSender(address arbsys) internal view returns (address) {\r\n        if (!isCrossChain(arbsys)) revert NotCrossChainCall();\r\n\r\n        return\r\n            ArbitrumL2_Bridge(arbsys).wasMyCallersAddressAliased()\r\n                ? ArbitrumL2_Bridge(arbsys).myCallersAddressWithoutAliasing()\r\n                : msg.sender;\r\n    }\r\n}\r\n",
  "sourcePath": "C:\\Kshitij\\UBSem2\\CSE 526 - Blockchain\\Project\\Phase3\\MarketPlaceBlockchain\\BI-contract\\contracts\\crosschain\\arbitrum\\LibArbitrumL2.sol",
  "compiler": {
    "name": "solc",
    "version": "0.8.7+commit.e28d00a7.Emscripten.clang"
  },
  "schemaVersion": "3.4.7",
  "updatedAt": "2022-05-08T19:09:20.579Z",
  "devdoc": {
    "details": "Primitives for cross-chain aware contracts for https://arbitrum.io/[Arbitrum]. This version should only be used on L2 to process cross-chain messages originating from L1. For the other side, use {LibArbitrumL1}.",
    "kind": "dev",
    "methods": {},
    "stateVariables": {
      "ARBSYS": {
        "details": "Returns whether the current function call is the result of a cross-chain message relayed by `arbsys`."
      }
    },
    "version": 1
  },
  "userdoc": {
    "kind": "user",
    "methods": {},
    "version": 1
  }
}